:020000040800F2
:100000001810002005010008950800088D08000858
:100010009108000871070008550D00080000000055
:10002000000000000000000000000000410900087E
:1000300075070008000000001D0900082D0A0008CF
:100040001F0100081F0100081F0100081F01000810
:100050001F0100081F0100081F0100081F01000800
:100060001F0100081F0100081F0100081F010008F0
:100070001F0100081F0100081F0100081F010008E0
:100080001F0100081F0100081F0100081F010008D0
:100090001F0100081F0100081F0100081F010008C0
:1000A0001F010008A50A00081F0100081F01000821
:1000B0001F0100081F0100081F0100081F010008A0
:1000C0001F0100081F0100081F0100081F01000890
:1000D0001F0100081F0100081F0100081F01000880
:1000E0001F0100081F0100081F010008DFF810D0E1
:1000F00000F034FA004800472D0F0008AFF30080ED
:10010000181000200648804706480047FEE7FEE733
:10011000FEE7FEE7FEE7FEE7FEE7FEE7FEE7FEE7B7
:10012000450A0008ED000008F0B480EA0102D40F8F
:100130004200B2EB410F02D20246084611464A0085
:1001400042D0C30DDDB2C1F3C752AD1A202D35DA4E
:10015000C1F3160141F4000204B15242C5F1200678
:1001600002FA06F12A411044B3EBD05F23D0C4B1A8
:10017000012DA0EBC35009DCF0BC4FF0004202EAB5
:10018000C352DBB200F5000000F025B9400000F1D9
:10019000807000EBC350A0F1807040EAD17049003C
:1001A00009E0490841EAC071A0EBC35000F5000026
:1001B000400800EBC350F0BC00F004B961420122DA
:1001C00002EB4101001BF6E7F0BC704781F00041F3
:1001D000AAE780F00040A7E780EA010210B502F02C
:1001E0000043400022D04A001FD0010E01EB1261F3
:1001F000C0F35600C2F3560240F4000042F400027D
:10020000A0FB022000047F39140400D0401C50EAF7
:10021000124001D44000491EC2B20C0604EBD010BB
:10022000401C4008802A02D003E0002010BD20F0CE
:100230000100002900DA0020184310BD2DE9FE4F0F
:1002400081EA030404F0004421F0004100944FF0DF
:10025000000B23F0004350EA01045ED052EA03048D
:100260005BD0C3F30A54C1F30A552C44A4F2F3340F
:100270000194A0FB0254C1F3130141F48011C3F3B4
:10028000130343F4801301FB024400FB034E840A72
:10029000970A44EA815447EA8357A4FB076802950A
:1002A0008D0A05FB07854FEA932C04FB0C542705A8
:1002B000029D4FEA065847EA1637B5EB08056EEB84
:1002C000070C870E920E47EA811742EA8312A7FBBA
:1002D0000201B6EB0B0164EB00042B0D43EA0C3377
:1002E0005E1844EB1C50DA465146E7FB0201C5F3A9
:1002F00013044FEA0B3343EA14534FEA0432019CD0
:1003000043EA0603A4F10C040294009CCDE900B476
:1003100000F0BCF803B0BDE8F08F00200146F9E71B
:1003200096230022114600F056B820F00040C10D7F
:10033000C0F3160040F400007F2901DA0020704766
:10034000962903DCC1F19601C84070479639884070
:10035000704700F0004230F000400AD0C10D01F5B6
:100360006071C0F3160042EA0151C2084007114310
:10037000704700200146704701F0004330B421F07F
:10038000004150EA010206D00A0DA2F56072C1F3E5
:100390001301002A02DC30BC00207047440F44EAFD
:1003A000C104C100E01830BC00EBC25000F00AB834
:1003B000002801DBC0F10040002901DBC1F1004150
:1003C000814270470029A8BF7047401C490008BF00
:1003D00020F00100704710B4B0FA80FC00FA0CF075
:1003E00050EA010404BF10BC704749B1CCF12004AD
:1003F00021FA04F411FA0CF118BF0121214308433A
:10040000A3EB0C01CB1D4FEA00614FEA102042BF65
:10041000002010BC704700EBC35010440029A4BF5B
:1004200010BC7047401C490008BF20F0010010BC00
:10043000704710B541000CD0C0F3C751962908DCB5
:100440007E2909DC06DB410204D000F0004040F0C8
:100450007E5010BD002010BDC1F19604C4F12001F2
:1004600000FA01F1E040FFF7ADFFA04010BD10B56C
:10047000141E73F1000408DA401C41F100019218C7
:100480005B411A4301D120F0010010BD2DE9F04D70
:1004900092469B4611B1B1FA81F202E0B0FA80F2C5
:1004A0002032904600F06CF804460F4640EA0A00FD
:1004B00041EA0B0153465A46084313D0114653EA0A
:1004C000010019D0C8F14002504600F068F8054616
:1004D0000E4650465946424600F052F8084305D0B1
:1004E000012004E020463946BDE8F08D0020054398
:1004F00046EAE0762C4337430A986305E40AA0EB0A
:1005000008000022FD0A44EA47540A3002D50020C0
:100510000146E9E7010510196941DDE908450019BF
:100520006941BDE8F04DA2E700F0004220F0004034
:10053000C10DC0F3160040F400007F2901DA00204D
:100540007047962903DCC1F19601C84001E0963955
:100550008840002AF4D0404270470000064C074D06
:1005600006E0E06840F0010394E807009847103483
:10057000AC42F6D3FFF7BEFDE410000804110008FA
:10058000202A04DB203A00FA02F100207047914053
:10059000C2F1200320FA03F3194390407047202A48
:1005A00004DB203A21FA02F00021704721FA02F31D
:1005B000D040C2F12002914008431946704730B440
:1005C00080EA010202F0004530F0004221F00040D4
:1005D00013D090B1C30DD40DC2F31601C0F31600B1
:1005E000E41A41F4000140F400027D34914201D349
:1005F000641C00E04900002C02DA30BC0020704787
:100600004FF400000023914201D3891A03434008AC
:100610004FEA4101F7D151B1914202D14FF000416F
:1006200005E002D24FF0010101E06FF0010103EBA0
:10063000C450284430BCFFF7C5BE420005D0C0F30B
:10064000C7525242914201DC0020704700EBC1507A
:100650007047C10F80EAE0700844CA079623002162
:10066000FFF7B9BE00B589B00121042000F058F9A8
:100670004FF48070ADF8200018208DF82300022080
:100680008DF8220008A9364800F075F801210820ED
:1006900000F046F94FF40050ADF8200018208DF816
:1006A000230002208DF8220008A92E4800F063F8EC
:1006B0000121C80200F034F90020ADF816002A48E4
:1006C0000088401E80B2ADF818004720ADF8140035
:1006D00000208DF81C00ADF81A0005A9234800F091
:1006E000E7FA0121214800F059FA01211F4800F0E2
:1006F0003DFA6020ADF804000020ADF80E00ADF822
:100700000C000420ADF808000120ADF80600002020
:10071000ADF80A0001A9154800F07CFA0121134840
:1007200000F04EFA0121114800F02CFA0122114686
:100730000E4800F065FA19208DF8000000208DF8B1
:1007400001008DF8020001208DF80300684600F0DA
:10075000A3F80121054800F027FA09B000BD000008
:1007600000080140000C014004000020002C014062
:1007700000BFFEE770472DE9F04102460025002644
:10078000002000230024002791F803C00CF00F057F
:1007900091F803C00CF0100CBCF1000F03D091F8DD
:1007A00002C04CEA050591F800C0BCF1000F31D041
:1007B000146800202BE04FF0010C0CFA00F3B1F8A4
:1007C00000C00CEA03069E4220D183004FF00F0CBC
:1007D0000CFA03F7BC4305FA03FC4CEA040491F855
:1007E00003C0BCF1280F06D14FF0010C0CFA00FC3D
:1007F000C2F814C00AE091F803C0BCF1480F05D15B
:100800004FF0010C0CFA00FCC2F810C0401C082884
:10081000D1D31460B1F800C0BCF1FF0F34DD5468CF
:1008200000202EE000F1080C4FF0010808FA0CF34C
:10083000B1F800C00CEA03069E4221D183004FF0BC
:100840000F0C0CFA03F7BC4305FA03FC4CEA040452
:1008500091F803C0BCF1280F05D100F1080C08FA8B
:100860000CF8C2F8148091F803C0BCF1480F07D10E
:1008700000F1080C4FF0010808FA0CF8C2F81080DB
:10088000401C0828CED35460BDE8F08100BFFEE7CD
:1008900000BFFEE77047000070B5002100230F2263
:1008A000C47804B3154C246804F4E064C4F5E0642F
:1008B000210AC1F10403CA40447804FA03F18478A0
:1008C0001440214309010E4C0678A155047804F028
:1008D0001F050124AC4005786D11AD0005F1E02540
:1008E000C5F8004109E0047804F01F050124AC407C
:1008F000044D0678761145F8264070BD0CED00E0F9
:1009000000E400E080E100E002490143024A116096
:10091000704700000000FA050CED00E07047000091
:1009200029B1064A92690243044B9A6104E0034AE2
:1009300092698243014B9A617047000000100240A7
:10094000704710B500F002F810BD00000CB5002093
:10095000019000903348006840F4803031490860CD
:1009600000BF3048006800F4003000900198401C3F
:100970000190009818B90198B0F5A06FF1D12948FD
:10098000006800F4003010B10120009001E0002068
:1009900000900098012843D12348006840F01000DF
:1009A000214908600846006820F0070008600846F2
:1009B000006840F0020008601A4840681949486021
:1009C0000846406848600846406840F480604860D7
:1009D0000846406820F47C1048600846406840F4AF
:1009E000E81048600846006840F08070086000BF6A
:1009F0000C48006800F000700028F9D009484068F1
:100A000020F00300074948600846406840F00200B3
:100A1000486000BF0348406800F00C000828F9D186
:100A20000CBD000000100240002002400448036892
:100A300040685A1C40F1000001490A604860704754
:100A40000800002010B51348006840F0010011496B
:100A5000086008464068104908400E49486008464A
:100A600000680E4908400B4908600846006820F4F9
:100A7000802008600846406820F4FE0048604FF47B
:100A80001F008860FFF75DFF4FF0006004490860B9
:100A900010BD0000001002400000FFF8FFFFF6FE4E
:100AA00008ED00E02DE9F04F85B00121294800F064
:100AB00096F801284BD10121264800F072F826480B
:100AC0000068FFF746FC8046244A254BFFF7B6FB3B
:100AD0000646FFF751FC009000F030FA4FF07E51CF
:100AE0000190FFF721FB0290FFF733FC0446002240
:100AF0001C4BFFF7A3FB8246FFF73EFC04901A480D
:100B00000068FFF70DFC05460499FFF765FB0446F6
:100B1000FFF70BFC80B203900E48039900F0C6F873
:100B20004FF07E510C480068FFF7FEFA0A49086052
:100B30000D480068FFF7F4FB0446074801682046AB
:100B4000FFF736FC02D100200349086000BF05B062
:100B5000BDE8F08F002C0140000000201F85EB5104
:100B6000B81E19400000E03F0400002021B10288B7
:100B700042F08002028004E002884FF67F731A4040
:100B80000280704721B1828842F00102828004E035
:100B900082884FF6FE731A4082807047CA430282F1
:100BA0007047CA430282704721B1028842F00102B5
:100BB000028004E002884FF6FE731A4002807047FC
:100BC00031B1B0F8442042F40042A0F8442005E0DE
:100BD000B0F84420C2F30E02A0F84420704730B5AC
:100BE0000246002000230024158A05EA01039589A6
:100BF00005EA010413B10CB1012000E0002030BD72
:100C00001AB183890B43838102E083898B438381FB
:100C10007047000070B5002400220023058C4FF6B9
:100C2000FE7635400584028C8388048B4FF68F75E1
:100C30002C40B51E2C400D882C43751E2A400D8972
:100C40002A434D882A43144DA8420BD0134DA84285
:100C500008D0134DA84205D0124DA84202D0124D23
:100C6000A84213D14FF6F7752A404D892A434FF613
:100C7000FB752A408D882A434FF6FF652B404FF6BF
:100C8000FF552B408D892B43CD892B4383800483D3
:100C9000CD888586028470BD002C0140003401405F
:100CA00000400140004401400048014081867047F7
:100CB000002202881D4B98420ED01D4B98420BD04B
:100CC000B0F1804F08D01B4B984205D01A4B984288
:100CD00002D01A4B984204D14FF68F731A404B88BA
:100CE0001A43174B984207D0164B984204D04FF640
:100CF000FF431A40CB881A4302808B8883850B8878
:100D000003850A4B98420BD0094B984208D00E4BF2
:100D1000984205D00D4B984202D00D4B984201D11C
:100D20000B7A03860123838270470000002C014068
:100D3000003401400004004000080040000C004066
:100D400000100040001400400040014000440140F9
:100D50000048014000BFFEE74100080218BF042020
:100D60000A0E18BF40F001004FF07F4232EA010145
:100D700008BF40F00200012808BF0520704701218C
:100D8000FFF75BBC00210846FFF719BC6FF05E015E
:100D90000807FFF752BC00002DE9F04D0D46144640
:100DA0004FF07F41B1EB440F9EBF4FF0FF31296000
:100DB000BDE8F08D4FF0004040EA0421C4F3C75075
:100DC000783810F01F024A4B4FEA601CC2F120062F
:100DD0007B44C4F3C750A0F178004FEA601003EBE6
:100DE000800053F82C3008BFD0E901C612D0D0F8EB
:100DF00004C093402CFA06F73B4387680CFA02FCC8
:100E000027FA06F8C06807FA02F2F0404CEA080C2C
:100E100042EA0006A3FB0132ACFB01C0A6FB016164
:100E200001EB0C068E4234BF4FF0010C4FF0000C6A
:100E3000C1186144BCF1000F02D0814202D903E025
:100E4000814201D2012000E00020104400F1200284
:100E50004FEA92188006CA0C40EA42304F03C5F8A8
:100E60000080FFF7F6FB82463846FFF759FA6FF02D
:100E70001201FFF7E2FB07463046FFF751FA6FF029
:100E80002501FFF7DAFB834639465046FFF74CF958
:100E90005946FFF749F900F500666FF30B06514616
:100EA0003046FFF793F93946FFF790F95946FFF7B7
:100EB00090F91049FFF790F907460F493046FFF7C0
:100EC0008BF93946FFF730F907460C493046FFF7F2
:100ED00083F93946FFF728F914F0004F08BFBDE841
:100EE000F08DC8F1805180F000402960BDE8F08DA0
:100EF000F0020000DB0FC92F22AAFD290000C92F34
:100F000002E008C8121F08C1002AFAD170477047D2
:100F1000002001E001C1121F002AFBD17047000030
:100F20000149086070470000100000204FF4A060E5
:100F3000FFF7EAFCFFF796FB00BFFEE72DE9F84359
:100F40000446024652486946B0EB420F09D94FF0B9
:100F5000E640B0EB420F94BF00204FF0FF3000900E
:100F600030E04C4B22F00040834271D94A49204680
:100F7000FFF732F9FFF75DFA8046FFF7D5FA00F088
:100F80000300009045494046FFF726F905464449CD
:100F90004046FFF721F9064642494046FFF71CF953
:100FA000074641494046FFF717F92146FFF711F977
:100FB0003946FFF70BF93146FFF708F92946FFF7E5
:100FC00005F904462546009C002C45DB294614F013
:100FD000010F08461ED0FFF7FFF805463349FFF71B
:100FE000FBF83349FFF7A0F82946FFF7F5F8314938
:100FF000FFF79AF82946FFF7EFF84FF07E51FFF719
:1010000093F814F0020F08BFBDE8F88380F00040A9
:10101000BDE8F883FFF7E0F806462749FFF7DCF85C
:101020002649FFF7D6F83146FFF7D6F82449FFF7EF
:101030007BF83146FFF7D0F82946FFF7CDF829466F
:10104000FFF772F814F0020FE0D1BDE8F883FFE774
:101050001046FFF7A1FEB4E76800B0F17F4F09D258
:101060002846FFF779FE042808BFFFF78FFE2846C1
:10107000BDE8F88306D10120FFF752FFBDE8F84331
:10108000FFF780BE2846BDE8F843FFF778BE0000B2
:10109000B61F927E490E494683F9223F1A61342CCD
:1010A0000020A23300A0FD390000C93FB93AB2BA0E
:1010B000CA9F2A3DDDFFFFBE336D4C39DA82083C02
:1010C000A0AA2ABE000000006E83F9A22915444E92
:1010D000D15727FCC0DD34F5999562DB4190433C44
:1010E000AB6351FE04110008000000201400000052
:1010F000000F000818110008140000200410000060
:10110000100F000800000000701700000000000031
:081110000000000000000000D7
:04000005080000ED02
:00000001FF
