:020000040800F2
:1000000008100020050100081503000885020008FB
:10001000890200084D0100083D05000800000000AD
:10002000000000000000000000000000390300088C
:10003000510100080000000017030008C504000873
:100040001F0100081F0100081F0100081F01000810
:100050001F0100081F0100081F0100081F01000800
:100060001F0100081F0100081F0100081F010008F0
:100070001F0100081F0100081F0100081F010008E0
:100080001F0100081F0100081F0100081F010008D0
:100090001F0100081F0100081F0100081F010008C0
:1000A0001F0100081F0100081F0100081F010008B0
:1000B0001F0100081F0100081F0100081F010008A0
:1000C0001F0100081F0100081F0100081F01000890
:1000D0001F0100081F0100081F0100081F01000880
:1000E0001F0100081F0100081F010008DFF810D0E1
:1000F00000F01AF8004800476D050008AFF30080D3
:10010000081000200648804706480047FEE7FEE743
:10011000FEE7FEE7FEE7FEE7FEE7FEE7FEE7FEE7B7
:10012000DD040008ED000008064C074D06E0E0681D
:1001300040F0010394E8070098471034AC42F6D32E
:10014000FFF7D8FFF00500081006000800BFFEE723
:1001500070472DE9F04102460025002600200023CB
:100160000024002791F803C00CF00F0591F803C09C
:100170000CF0100CBCF1000F03D091F802C04CEA57
:10018000050591F800C0BCF1000F31D014680020C3
:100190002BE04FF0010C0CFA00F3B1F800C00CEAB0
:1001A00003069E4220D183004FF00F0C0CFA03F798
:1001B000BC4305FA03FC4CEA040491F803C0BCF10B
:1001C000280F06D14FF0010C0CFA00FCC2F814C045
:1001D0000AE091F803C0BCF1480F05D14FF0010CC3
:1001E0000CFA00FCC2F810C0401C0828D1D31460DF
:1001F000B1F800C0BCF1FF0F34DD546800202EE0E0
:1002000000F1080C4FF0010808FA0CF3B1F800C037
:100210000CEA03069E4221D183004FF00F0C0CFA2A
:1002200003F7BC4305FA03FC4CEA040491F803C04D
:10023000BCF1280F05D100F1080C08FA0CF8C2F83F
:10024000148091F803C0BCF1480F07D100F1080CED
:100250004FF0010808FA0CF8C2F81080401C08287A
:10026000CED35460BDE8F0810246002093680B4075
:100270000BB1012000E0002070470AB1016100E0ED
:100280004161704700BFFEE700BFFEE708B50121EE
:10029000042000F041F80320ADF8000014208DF890
:1002A000030002208DF8020069460748FFF751FF5E
:1002B000012211460448FFF7E0FF01220221024813
:1002C000FFF7DBFF08BD0000000801402DE9F04109
:1002D00005460E46174600F061F805F0FE0000F0F6
:1002E0002CF828B100F062F84FF0FF30BDE8F08143
:1002F000002409E0305D00F020F820B100F056F84D
:100300006FF00100F2E7641CBC42F3D300F04EF83A
:100310000020EBE77047704729B1064A9269024313
:10032000044B9A6104E0034A92698243014B9A614B
:100330007047000000100240704770B50546072462
:1003400018E0002000F024F90120A040284018B156
:10035000012000F03BF902E0002000F037F9012015
:1003600000F0FDF8012000F013F9012000F0F7F88B
:10037000601E44B2002CE4DA002000F009F90120EC
:1003800000F024F9012000F0EAF8012000F000F963
:10039000012000F0E4F800F00DF970BD10B5002068
:1003A00000F014F9012000F0DAF810BD10B50020BB
:1003B00000F0EEF8002000F009F9012000F0CFF87D
:1003C000012000F0E5F8012000F0C9F8012000F05C
:1003D000FDF8012000F0C3F810BD10B500F002F8E0
:1003E00010BD00000CB5002001900090334800685B
:1003F00040F480303149086000BF3048006800F4A4
:10040000003000900198401C0190009818B90198A4
:10041000B0F5A06FF1D12948006800F4003010B1A8
:100420000120009001E0002000900098012843D1B5
:100430002348006840F01000214908600846006821
:1004400020F0070008600846006840F002000860DD
:100450001A4840681949486008464068486008469C
:10046000406840F4806048600846406820F47C1092
:1004700048600846406840F4E81048600846006854
:1004800040F08070086000BF0C48006800F0007009
:100490000028F9D00948406820F003000749486067
:1004A0000846406840F00200486000BF03484068CA
:1004B00000F00C000828F9D10CBD0000001002402B
:1004C000002002400448036840685A1C40F10000C4
:1004D00001490A60486070470000002010B51348C9
:1004E000006840F001001149086008464068104962
:1004F00008400E494860084600680E4908400B490C
:1005000008600846006820F48020086008464068BB
:1005100020F4FE0048604FF41F008860FFF75DFF85
:100520004FF000600449086010BD00000010024058
:100530000000FFF8FFFFF6FE08ED00E000BFFEE759
:1005400002E008C8121F08C1002AFAD1704770479C
:10055000002001E001C1121F002AFBD17047C20038
:10056000002100E0491C9142FCD370471CB5FFF705
:100570008DFE05A103C9CDE9000105226946782059
:10058000FFF7A4FE00BFFEE7008D14AFA50000003A
:1005900010B504462CB9002201210548FFF76DFE75
:1005A00004E0012211460248FFF767FE10BD00007B
:1005B0000008014010B502210348FFF755FE01284D
:1005C00000D110BD0020FCE70008014010B5044632
:1005D0002CB9002202210548FFF74FFE04E001225A
:1005E00002210248FFF749FE10BD0000000801404B
:1005F0001006000800000020080000004005000868
:10060000180600080800002000100000500500082F
:080610000000000000000000E2
:04000005080000ED02
:00000001FF
