:020000040800F2
:100000006010002005010008030900080508000829
:100010000908000825050008D90C000800000000A8
:10002000000000000000000000000000770B000846
:100030002905000800000000F1090008610C000813
:100040001F0100081F0100081F0100081F01000810
:100050001F0100081F0100081F0100081F01000800
:100060001F0100081F0100081F0100081F010008F0
:100070001F0100081F0100081F0100081F010008E0
:100080001F0100081F0100081F0100081F010008D0
:100090001F0100081F0100081F0100081F010008C0
:1000A0001F0100081F0100081F0100081F010008B0
:1000B0001F0100081F0100081F0100081F010008A0
:1000C0001F0100081F0100081F0100081F01000890
:1000D0001F0100081F0100081F0100081F01000880
:1000E0001F0100081F0100081F010008DFF810D0E1
:1000F00000F02CF800480047390D0008AFF30080ED
:10010000601000200648804706480047FEE7FEE7EB
:10011000FEE7FEE7FEE7FEE7FEE7FEE7FEE7FEE7B7
:10012000790C0008ED000008D2B201E000F8012BC4
:10013000491EFBD270470022F6E710B513460A4667
:1001400004461946FFF7F0FF204610BD064C074D48
:1001500006E0E06840F0010394E807009847103497
:10016000AC42F6D3FFF7C6FF6C0D00088C0D0008FB
:1001700008B50121102000F03DFC4FF40050ADF80F
:10018000000014208DF8030002208DF8020069465B
:10019000044800F045FA01225103024800F026FB12
:1001A00008BD00000010014000B589B02421684658
:1001B000FFF7C1FF064800900120ADF80400054894
:1001C00004906946044800F021FB09B000BD00001E
:1001D00000080140FD0C00082000002000B587B099
:1001E0000121084600F006FC0121084600F0A4FAAF
:1001F0000121082000F0FEFB0820ADF818001820AF
:100200008DF81B0002208DF81A0006A9304800F076
:1002100007FA0121082000F0EDFB1020ADF81800CE
:1002200048208DF81B0006A9294800F0F9F90121A2
:10023000082000F0DFFB2020ADF8180018208DF812
:100240001B0002208DF81A0006A9214800F0E8F9E9
:100250000121204800F070FA0121042000F0CAFBBF
:100260004FF40040ADF8180010208DF81B0002205C
:100270008DF81A0006A9184800F0D2F90122D1031E
:10028000154800F0B3FA0121080300F0B3FB4FF466
:100290008270ADF806000020ADF80400ADF808004B
:1002A000ADF80A00ADF80C00ADF812002820ADF84A
:1002B00010004FF40070ADF80E0001A9074800F0DF
:1002C0002DFC4FF48071054800F046FC07B000BDDE
:1002D000000C0140000230000008014000300140E5
:1002E0002DE9F04180460D4616461F4601211C4867
:1002F00000F0FAFB29781A4800F00EFC002418E000
:1003000000BF0221164800F0FBFB0028F9D0601C5A
:10031000295C134800F000FC00BF0121104800F0E8
:10032000EFFB0028F9D00E4800F0F3FB3055601CBD
:1003300084B2781EA042E3DC00BF0121084800F02F
:10034000DFFB0028F9D0064800F0E3FBC1B2781EBD
:1003500031540021024800F0C7FBBDE8F0810000E5
:10036000003001400EB500224FF40041114800F06A
:100370003DFA03208DF8000000208DF801008DF873
:1003800002008DF8030004236A4669460A48FFF715
:10039000A7FFFF208DF8000001236A466946064842
:1003A000FFF79EFF0122D103024800F01FFA9DF8DB
:1003B00000000EBD00080140003001403EB504467B
:1003C00006208DF8000000224FF40041534800F051
:1003D0000DFA01236A4669465148FFF781FF012261
:1003E000D1034E4800F002FA20208DF800000020D2
:1003F0008DF801008DF802008DF8030000224FF403
:100400000041464800F0F2F904236A466946444830
:10041000FFF766FF0122D103404800F0E7F922E030
:1004200000224FF400413D4800F0E0F905208DF82E
:10043000000001236A4669463948FFF751FFFF2053
:100440008DF8000001236A4669463548FFF748FFEA
:100450000122D103314800F0C9F99DF8000000F0F5
:10046000010000B900E0DBE700BF06208DF80000C6
:1004700000224FF40041294800F0B8F901236A46F0
:1004800069462748FFF72CFF0122D103234800F0DB
:10049000ADF900224FF40041204800F0A7F90220F6
:1004A0008DF8000000208DF801008DF802008DF815
:1004B00003008DF8044005236A4669461848FFF793
:1004C0000FFF0122D103154800F090F922E000222D
:1004D0004FF40041114800F089F905208DF8000023
:1004E00001236A4669460E48FFF7FAFEFF208DF8A1
:1004F000000001236A4669460948FFF7F1FE012220
:10050000D103064800F072F99DF8000000F00100E8
:1005100000B900E0DBE700BF3EBD0000000801407D
:100520000030014000BFFEE77047000010B586B004
:10053000142101A8FFF7FFFD4FF0E020006920F033
:1005400001004FF0E021086100211B4A1160516059
:1005500001A800F05FFA4FF0E020006940F00200CF
:100560004FF0E021086100211448C1774FF47A71FF
:100570000298B0FBF1F4B4F1807F09D3E4084FF0A6
:10058000E020006920F004004FF0E021086107E05E
:100590004FF0E020006940F004004FF0E0210861D6
:1005A000601E4FF0E02148610846006940F00100FC
:1005B000086106B010BD00001800002000ED00E04A
:1005C00070B504460D460DB1012000E0002006463E
:1005D0000F48844204D13146042000F00BFA16E0A3
:1005E0000C48844204D13146082000F003FA0EE0A2
:1005F0000948844204D13146102000F0FBF906E09E
:100600000648844203D13146202000F0F3F970BD42
:1006100000080140000C014000100140001401409E
:100620002DE9F04102460025002600200023002489
:10063000002791F803C00CF00F0591F803C00CF0EF
:10064000100CBCF1000F03D091F802C04CEA050574
:1006500091F800C0BCF1000F31D0146800202BE0ED
:100660004FF0010C0CFA00F3B1F800C00CEA0306DD
:100670009E4220D183004FF00F0C0CFA03F7BC43CD
:1006800005FA03FC4CEA040491F803C0BCF1280FFE
:1006900006D14FF0010C0CFA00FCC2F814C00AE0BD
:1006A00091F803C0BCF1480F05D14FF0010C0CFAD2
:1006B00000FCC2F810C0401C0828D1D31460B1F867
:1006C00000C0BCF1FF0F34DD546800202EE000F1C3
:1006D000080C4FF0010808FA0CF3B1F800C00CEA5E
:1006E00003069E4221D183004FF00F0C0CFA03F752
:1006F000BC4305FA03FC4CEA040491F803C0BCF1C6
:10070000280F05D100F1080C08FA0CF8C2F8148083
:1007100091F803C0BCF1480F07D100F1080C4FF06D
:10072000010808FA0CF8C2F81080401C0828CED343
:100730005460BDE8F0810000F0B50A4600230024B3
:100740000021002500F00046B6F1004F02D11D4EF9
:10075000F16901E01B4E7168C0F3034583B200F4F8
:100760004016B6F5401F08D121F07061154E76682D
:1007700026F07066134F7E6012E000F48016B6F526
:10078000801F06D1032606FA05F4A14341F07061EB
:1007900006E0460D360103FA06F6B14341F07061FA
:1007A00022B1460D360103FA06F6314300F0004649
:1007B000B6F1004F02D1034EF16101E0014E7160CC
:1007C000F0BD0000000001400246002093680B408D
:1007D0000BB1012000E00020704702460020D368E2
:1007E0000B400BB1012000E0002070470AB101610D
:1007F00000E041617047000001490868496870479E
:100800001800002000BFFEE700BFFEE738B5044631
:100810000D4628682060A888A080A868A060E868C5
:10082000E0602869206168696061A869A061286A40
:100830002062E869E06101212068FFF7C1FEA0881D
:10084000ADF8000048208DF8030069462068FFF7E6
:10085000E7FEA06910B94FF47A70A061E06908B9A9
:100860006420E061206A08B9C8202062002004F8F2
:10087000240F60706060A060E06020742076243CEB
:1008800038BD70B50446FFF7B7FF064694F825005B
:10089000F8B1A06A0A30B0422CD8A1882068FFF7CE
:1008A00093FF08B9012000E00020054694F82400D9
:1008B000A84208D0012D03D1204600F073F802E0D1
:1008C000204600F079F884F82450002084F82500B0
:1008D00010E0A1882068FFF777FF08B9012000E049
:1008E0000020054694F82400A84203D0A662012007
:1008F00084F8250094F824103246204600F002F8CF
:1009000070BD70472DE9F04104460E46154694F837
:100910002400012829D194F8340098B9E06A20B362
:10092000E06A281AA16988421FD9012084F834009E
:10093000606918B194F8340061698847FFF75CFF7B
:10094000A06312E0A06B281AE16988420DD9FFF775
:1009500053FFA06394F83400401C84F834006069AD
:1009600018B194F834006169884794F83C00002875
:1009700016DD94F8240098B9FFF73EFF226B831A26
:1009800061F100010020226AD21A884108D2206950
:1009900018B194F83C0021698847002084F83C0095
:1009A000BDE8F08110B50446FFF726FFE062A068BD
:1009B00008B1A068804710BD10B50446FFF71CFFC2
:1009C0002063E06808B1E0688047002084F83400C4
:1009D000D4E90B10401AA169884205D294F83C0072
:1009E000401C84F83C0002E0002084F83C0010BD6C
:1009F0007047000029B1064A92690243044B9A618C
:100A000004E0034A92698243014B9A6170470000F7
:100A10000010024030B500210022002400232D4D9B
:100A20006D6805F00C0121B1042905D0082923D1F6
:100A300005E0294D056022E0274D05601FE0254DAA
:100A40006D6805F47012234D6D6805F4803402253D
:100A500005EB92421CB9214D554305600BE01D4D3D
:100A60006D6805F400351DB11C4D5543056002E06D
:100A7000194D5543056002E0174D056000BF00BFEA
:100A8000144D6D6805F0F0010909154D6B5C0568A2
:100A9000DD4045600F4D6D6805F4E061090A104DB9
:100AA0006B5C4568DD4085600A4D6D6805F46051FA
:100AB000C90A0B4D6B5C4568DD40C560054D6D682E
:100AC00005F44041890B074D6B5CC568B5FBF3F538
:100AD000056130BD0010024000127A0000093D009F
:100AE000000000201000002021B1028842F04002E6
:100AF000028004E002884FF6BF731A4002807047FC
:100B00000246002013890B400BB1012000E00020B9
:100B100070470146888970478181704710B500226F
:100B2000028802F441520B884C8823438C8823436B
:100B3000CC8823430C8923434C8923438C8923434A
:100B4000CC8923431A430280838B4FF2FF742340E6
:100B500083830B8A038210BD4FF6FF62914204D05B
:100B6000028842F48072028004E002884FF6FF633C
:100B70001A4002807047704710B500F001F810BDB0
:100B80000CB50020019000903348006840F480309C
:100B90003149086000BF3048006800F40030009020
:100BA0000198401C0190009818B90198B0F5A06F09
:100BB000F1D12948006800F4003010B10120009004
:100BC00001E0002000900098012843D123480068EC
:100BD00040F01000214908600846006820F0070036
:100BE00008600846006840F0020008601A48406843
:100BF000194948600846406848600846406840F423
:100C0000806048600846406820F47C1048600846D0
:100C1000406840F4E81048600846006840F0807082
:100C2000086000BF0C48006800F000700028F9D090
:100C30000948406820F003000749486008464068BA
:100C400040F00200486000BF0348406800F00C001C
:100C50000828F9D10CBD000000100240002002401D
:100C60000448036840685A1C40F1000001490A60CA
:100C7000486070471800002010B51348006840F025
:100C800001001149086008464068104908400E49B3
:100C90004860084600680E4908400B49086008464D
:100CA000006820F4802008600846406820F4FE00B8
:100CB00048604FF41F008860FFF75EFF4FF0006050
:100CC0000449086010BD0000001002400000FFF859
:100CD000FFFFF6FE08ED00E000BFFEE702E008C8F7
:100CE000121F08C1002AFAD170477047002001E0A6
:100CF00001C1121F002AFBD17047000010B5044645
:100D00004FF400510B48FFF768FD40B90122510331
:100D10000848FFF76BFD0120FFF750FB08E00022B9
:100D20004FF400510348FFF761FD0020FFF746FB39
:100D300010BD000000100140FFF7F8FBFFF734FA88
:100D4000FFF716FAFFF74AFAFFF70CFB04462246B4
:100D50004FF400510348FFF749FD02E00248FFF756
:100D600090FDFBE700100140200000208C0D0008E2
:100D70000000002020000000DC0C0008AC0D000882
:100D80002000002040100000EC0C000800000000D3
:100D9000010203040102030406070809020406080D
:0C0DA00000000000000000000000000047
:04000005080000ED02
:00000001FF
