:020000040800F2
:1000000070100020050100081F04000817040008F4
:100010001B04000841020008250800080000000039
:1000200000000000000000000000000019050008AA
:100030004502000800000000210400080506000831
:100040001F0100081F0100081F0100081F01000810
:100050001F0100081F0100081F0100081F01000800
:100060001F0100081F0100081F0100081F010008F0
:100070001F0100081F0100081F0100081F010008E0
:100080001F0100081F0100081F0100081F010008D0
:100090001F0100081F0100081F0100081F010008C0
:1000A0001F0100081F0100081F0100081F010008B0
:1000B0001F0100081F0100081F0100081F010008A0
:1000C0001F0100081F0100081F0100081F01000890
:1000D0001F0100081F0100081F0100081F01000880
:1000E0001F0100081F0100081F010008DFF810D0E1
:1000F00000F02CF80048004749080008AFF30080E2
:10010000701000200648804706480047FEE7FEE7DB
:10011000FEE7FEE7FEE7FEE7FEE7FEE7FEE7FEE7B7
:100120001D060008ED000008D2B201E000F8012B26
:10013000491EFBD270470022F6E710B513460A4667
:1001400004461946FFF7F0FF204610BD064C074D48
:1001500006E0E06840F0010394E807009847103497
:10016000AC42F6D3FFF7C6FF84080008A4080008D5
:1001700000B589B00121042000F054F901210820C4
:1001800000F050F918208DF823004FF48070ADF87E
:10019000200002208DF8220008A9264800F0B0F8BF
:1001A00018208DF823004FF40050ADF820000220F5
:1001B0008DF8220008A9204800F0A2F80121C80209
:1001C00000F030F900208DF81C00ADF81600472033
:1001D000ADF8140040F2E730ADF8180005A9174853
:1001E00000F0CEFA0121154800F048FA0121134829
:1001F00000F05CFA6020ADF804000020ADF80E00BD
:10020000ADF80C000420ADF808000120ADF80600A0
:100210000020ADF80A0001A9084800F063FA0121A6
:10022000064800F04FFA0121044800F033FA09B003
:1002300000BD000000080140000C0140002C0140FE
:1002400000BFFEE77047000030B5074B1D685B68D4
:10025000291843F1000200BF034B1C685B68641A55
:100260009341F9D330BD00006800002010B586B07E
:10027000142101A8FFF75FFF4FF0E020006920F094
:1002800001004FF0E021086100211B4A116051601C
:1002900001A800F0D7F84FF0E020006940F002001C
:1002A0004FF0E021086100211448C1774FF47A71C2
:1002B0000298B0FBF1F4B4F1807F09D3E4084FF069
:1002C000E020006920F004004FF0E021086107E021
:1002D0004FF0E020006940F004004FF0E021086199
:1002E000601E4FF0E02148610846006940F00100BF
:1002F000086106B010BD00006800002000ED00E0BD
:100300002DE9F041024600250026002000230024AC
:10031000002791F803C00CF00F0591F803C00CF012
:10032000100CBCF1000F03D091F802C04CEA050597
:1003300091F800C0BCF1000F31D0146800202BE010
:100340004FF0010C0CFA00F3B1F800C00CEA030600
:100350009E4220D183004FF00F0C0CFA03F7BC43F0
:1003600005FA03FC4CEA040491F803C0BCF1280F21
:1003700006D14FF0010C0CFA00FCC2F814C00AE0E0
:1003800091F803C0BCF1480F05D14FF0010C0CFAF5
:1003900000FCC2F810C0401C0828D1D31460B1F88A
:1003A00000C0BCF1FF0F34DD546800202EE000F1E6
:1003B000080C4FF0010808FA0CF3B1F800C00CEA81
:1003C00003069E4221D183004FF00F0C0CFA03F775
:1003D000BC4305FA03FC4CEA040491F803C0BCF1E9
:1003E000280F05D100F1080C08FA0CF8C2F81480A7
:1003F00091F803C0BCF1480F07D100F1080C4FF091
:10040000010808FA0CF8C2F81080401C0828CED366
:100410005460BDE8F08100BFFEE700BFFEE7704713
:100420007047000029B1064A92690243044B9A6161
:1004300004E0034A92698243014B9A6170470000CD
:100440000010024030B500210022002400232D4D71
:100450006D6805F00C0121B1042905D0082923D1CC
:1004600005E0294D056022E0274D05601FE0254D80
:100470006D6805F47012234D6D6805F48034022513
:1004800005EB92421CB9214D554305600BE01D4D13
:100490006D6805F400351DB11C4D5543056002E043
:1004A000194D5543056002E0174D056000BF00BFC0
:1004B000144D6D6805F0F0010909154D6B5C056878
:1004C000DD4045600F4D6D6805F4E061090A104D8F
:1004D0006B5C4568DD4085600A4D6D6805F46051D0
:1004E000C90A0B4D6B5C4568DD40C560054D6D6804
:1004F00005F44041890B074D6B5CC568B5FBF3F50E
:10050000056130BD0010024000127A0000093D0074
:100510005000002060000020704710B500F002F885
:1005200010BD00000CB50020019000903348006819
:1005300040F480303149086000BF3048006800F462
:10054000003000900198401C0190009818B9019863
:10055000B0F5A06FF1D12948006800F4003010B167
:100560000120009001E0002000900098012843D174
:100570002348006840F010002149086008460068E0
:1005800020F0070008600846006840F0020008609C
:100590001A4840681949486008464068486008465B
:1005A000406840F4806048600846406820F47C1051
:1005B00048600846406840F4E81048600846006813
:1005C00040F08070086000BF0C48006800F00070C8
:1005D0000028F9D00948406820F003000749486026
:1005E0000846406840F00200486000BF0348406889
:1005F00000F00C000828F9D10CBD000000100240EA
:10060000002002400448036840685A1C40F1000082
:1006100001490A60486070476800002010B513481F
:10062000006840F001001149086008464068104920
:1006300008400E494860084600680E4908400B49CA
:1006400008600846006820F480200860084640687A
:1006500020F4FE0048604FF41F008860FFF75DFF44
:100660004FF000600449086010BD00000010024017
:100670000000FFF8FFFFF6FE08ED00E021B1028860
:1006800042F08002028004E002884FF67F731A4035
:100690000280704721B1828842F00102828004E02A
:1006A00082884FF6FE731A408280704721B102881B
:1006B00042F00102028004E002884FF6FE731A4005
:1006C0000280704731B1B0F8442042F40042A0F8F3
:1006D000442005E0B0F84420C2F30E02A0F8442004
:1006E0007047000070B5002400220023058C4FF6EF
:1006F000FE7635400584028C8388048B4FF68F7517
:100700002C40B51E2C400D882C43751E2A400D89A7
:100710002A434D882A43144DA8420BD0134DA842BA
:1007200008D0134DA84205D0124DA84202D0124D58
:10073000A84213D14FF6F7752A404D892A434FF648
:10074000FB752A408D882A434FF6FF652B404FF6F4
:10075000FF552B408D892B43CD892B438380048308
:10076000CD888586028470BD002C01400034014094
:10077000004001400044014000480140818670472C
:10078000002202881D4B98420ED01D4B98420BD080
:10079000B0F1804F08D01B4B984205D01A4B9842BD
:1007A00002D01A4B984204D14FF68F731A404B88EF
:1007B0001A43174B984207D0164B984204D04FF675
:1007C000FF431A40CB881A4302808B8883850B88AD
:1007D00003850A4B98420BD0094B984208D00E4B28
:1007E000984205D00D4B984202D00D4B984201D152
:1007F0000B7A03860123838270470000002C01409E
:10080000003401400004004000080040000C00409B
:10081000001000400014004000400140004401402E
:100820000048014000BFFEE702E008C8121F08C1EF
:10083000002AFAD170477047002001E001C1121F61
:10084000002AFBD170470000FFF710FDFFF790FC76
:10085000002511E028466D1C142190FBF1F201FBEC
:100860001200064931F8200084B221460448FFF7FF
:1008700085FFC820FFF7E8FCECE70000000000203F
:10088000002C0140A40800080000002070000000B7
:10089000280800081409000870000020001000005B
:1008A000380800080000000064000000C8000000D4
:1008B0002C01000090010000F4010000580200002B
:1008C000BC0200002003000084030000E8030000D5
:1008D0008403000020030000BC0200005802000056
:1008E000F4010000900100002C010000C80000008D
:1008F0006400000000000000010203040102030480
:1009000006070809020406080000000000000000B5
:0409100000000000E3
:04000005080000ED02
:00000001FF
