:020000040800F2
:1000000020100020050100083904000851030008F1
:100010005503000871010008B30700080000000044
:100020000000000000000000000000003105000892
:1000300075010008000000003B0400081D060008D0
:100040001F0100081F0100081F0100081F01000810
:100050001F0100081F0100081F0100081F01000800
:100060001F0100081F0100081F0100081F010008F0
:100070001F0100081F0100081F0100081F010008E0
:100080001F0100081F0100081F0100081F010008D0
:100090001F0100081F0100081F0100081F010008C0
:1000A0001F0100081F0100081F0100081F010008B0
:1000B0001F0100081F0100081F0100081F010008A0
:1000C0001F0100081F0100081F0100081F01000890
:1000D0001F0100081F0100081F0100081F01000880
:1000E0001F0100081F0100081F010008DFF810D0E1
:1000F00000F02CF800480047D5070008AFF3008057
:10010000201000200648804706480047FEE7FEE72B
:10011000FEE7FEE7FEE7FEE7FEE7FEE7FEE7FEE7B7
:1001200035060008ED000008D2B201E000F8012B0E
:10013000491EFBD270470022F6E710B513460A4667
:1001400004461946FFF7F0FF204610BD064C074D48
:1001500006E0E06840F0010394E807009847103497
:10016000AC42F6D3FFF7C6FF440800086408000855
:1001700000BFFEE77047000030B5074B1D685B68A5
:10018000291843F1000200BF034B1C685B68641A26
:100190009341F9D330BD00001800002010B586B09F
:1001A000142101A8FFF7C7FF4FF0E020006920F0FD
:1001B00001004FF0E021086100211B4A11605160ED
:1001C00001A800F04BF94FF0E020006940F0020078
:1001D0004FF0E021086100211448C1774FF47A7193
:1001E0000298B0FBF1F4B4F1807F09D3E4084FF03A
:1001F000E020006920F004004FF0E021086107E0F2
:100200004FF0E020006940F004004FF0E021086169
:10021000601E4FF0E02148610846006940F001008F
:10022000086106B010BD00001800002000ED00E0DD
:100230002DE9F0410246002500260020002300247D
:10024000002791F803C00CF00F0591F803C00CF0E3
:10025000100CBCF1000F03D091F802C04CEA050568
:1002600091F800C0BCF1000F31D0146800202BE0E1
:100270004FF0010C0CFA00F3B1F800C00CEA0306D1
:100280009E4220D183004FF00F0C0CFA03F7BC43C1
:1002900005FA03FC4CEA040491F803C0BCF1280FF2
:1002A00006D14FF0010C0CFA00FCC2F814C00AE0B1
:1002B00091F803C0BCF1480F05D14FF0010C0CFAC6
:1002C00000FCC2F810C0401C0828D1D31460B1F85B
:1002D00000C0BCF1FF0F34DD546800202EE000F1B7
:1002E000080C4FF0010808FA0CF3B1F800C00CEA52
:1002F00003069E4221D183004FF00F0C0CFA03F746
:10030000BC4305FA03FC4CEA040491F803C0BCF1B9
:10031000280F05D100F1080C08FA0CF8C2F8148077
:1003200091F803C0BCF1480F07D100F1080C4FF061
:10033000010808FA0CF8C2F81080401C0828CED337
:100340005460BDE8F0810AB1016100E0416170478D
:1003500000BFFEE700BFFEE708B50121102000F056
:100360006DF84FF40050ADF8000014208DF8030034
:1003700002208DF8020069460148FFF759FF08BDC9
:100380000010014000B585B00121042000F056F8AE
:100390004FF40070ADF8100018208DF81300012004
:1003A0008DF8120004A91648FFF742FF012104202E
:1003B00000F044F84FF48060ADF8100048208DF84C
:1003C000130004A90E48FFF733FF0121880300F052
:1003D00035F84FF4E13000900C20ADF80A00002011
:1003E000ADF80400ADF80600ADF808006946054810
:1003F00000F06AF90121034800F04CF905B000BD96
:10040000000801400038014070B504460D4600BFA9
:100410008021084800F04AF90028F9D029462046F2
:1004200000F0C3F900BF4021024800F03FF9002866
:10043000F9D070BD003801407047704729B1064AB5
:1004400092690243044B9A6104E0034A9269824331
:10045000014B9A61704700000010024030B5002146
:100460000022002400232D4D6D6805F00C0121B100
:10047000042905D0082923D105E0294D056022E093
:10048000274D05601FE0254D6D6805F47012234D62
:100490006D6805F48034022505EB92421CB9214DAC
:1004A000554305600BE01D4D6D6805F400351DB129
:1004B0001C4D5543056002E0194D5543056002E0AF
:1004C000174D056000BF00BF144D6D6805F0F001C9
:1004D0000909154D6B5C0568DD4045600F4D6D6881
:1004E00005F4E061090A104D6B5C4568DD408560EC
:1004F0000A4D6D6805F46051C90A0B4D6B5C456887
:10050000DD40C560054D6D6805F44041890B074D20
:100510006B5CC568B5FBF3F5056130BD00100240AA
:1005200000127A0000093D000000002010000020A9
:10053000704710B500F002F810BD00000CB50020A7
:10054000019000903348006840F4803031490860E1
:1005500000BF3048006800F4003000900198401C53
:100560000190009818B90198B0F5A06FF1D1294811
:10057000006800F4003010B10120009001E000207C
:1005800000900098012843D12348006840F01000F3
:10059000214908600846006820F007000860084606
:1005A000006840F0020008601A4840681949486035
:1005B0000846406848600846406840F480604860EB
:1005C0000846406820F47C1048600846406840F4C3
:1005D000E81048600846006840F08070086000BF7E
:1005E0000C48006800F000700028F9D00948406805
:1005F00020F00300074948600846406840F00200C8
:10060000486000BF0348406800F00C000828F9D19A
:100610000CBD0000001002400020024004480368A6
:1006200040685A1C40F1000001490A604860704768
:100630001800002010B51348006840F0010011496F
:10064000086008464068104908400E49486008465E
:1006500000680E4908400B4908600846006820F40D
:10066000802008600846406820F4FE0048604FF48F
:100670001F008860FFF75DFF4FF0006004490860CD
:1006800010BD0000001002400000FFF8FFFFF6FE62
:1006900008ED00E021B1828942F40052828104E039
:1006A00082894DF6FF731A4082817047024600200E
:1006B000B1F5007F00D100BF13880B400BB10120C2
:1006C00000E00020704700002DE9F04786B00546A5
:1006D0000E460024A24600BFA1460027B08900B103
:1006E00000BF2F462C8A4CF6FF700440F08804436C
:1006F0002C82AC894EF6F3100440B088318908434F
:10070000718908430443AC81AC8A4FF6FF40044032
:10071000B0890443AC8201A8FFF7A0FE1F488742BE
:1007200002D1DDF810A001E0DDF80CA0A88900F4EA
:10073000004040B10AEBCA0000EB0A1031684900E2
:10074000B0FBF1F807E00AEBCA0000EB0A103168D1
:100750008900B0FBF1F86420B8FBF0F00401200937
:10076000642101FB1089A88900F4004040B13220C7
:1007700000EBC900B0FBF1F000F00700044308E013
:10078000322000EB09106421B0FBF1F000F00F0003
:1007900004432C8106B0BDE8F0870000003801401A
:1007A00001468888C0F308007047C1F308028280C0
:1007B000704700BFFEE702E008C8121F08C1002A08
:1007C000FAD170477047002001E001C1121F002AD2
:1007D000FBD17047FFF7E2FCFFF7D4FDFFF7BCFD4C
:1007E0002BE000BF20211548FFF760FF0028F9D05B
:1007F0001248FFF7D5FFC4B2302C05D101225103B6
:100800000F48FFF7A0FD0FE0322C05D10122510364
:100810000B48FFF798FD07E0312C05D100224FF47B
:1008200000510748FFF78FFD21460448FFF7ECFD14
:100830004FF47A70FFF7A0FC00BFD2E70038014008
:1008400000100140640800080000002020000000A3
:10085000B6070008840800082000002000100000EF
:10086000C60700080000000001020304010203049F
:100870000607080902040608000000000000000046
:040880000000000074
:04000005080000ED02
:00000001FF
