:020000040800F2
:100000002810002005010008550A00084D0A0008C4
:10001000510A00088D080008590E00080000000071
:100020000000000000000000000000004D0B000870
:100030009108000800000000570A0008390C000869
:100040001F0100081F0100081F0100081F01000810
:100050001F0100081F0100081F0100081F01000800
:100060001F0100081F0100081F0100081F010008F0
:100070001F0100081F0100081F0100081F010008E0
:100080001F0100081F0100081F0100081F010008D0
:100090001F0100081F0100081F0100081F010008C0
:1000A0001F0100081F0100081F0100081F010008B0
:1000B0001F0100081F0100081F0100081F010008A0
:1000C0001F0100081F0100081F0100081F01000890
:1000D0001F0100081F0100081F0100081F01000880
:1000E0001F0100081F0100081F010008DFF810D0E1
:1000F00000F07EFA00480047F1140008AFF30080DA
:10010000281000200648804706480047FEE7FEE723
:10011000FEE7FEE7FEE7FEE7FEE7FEE7FEE7FEE7B7
:10012000510C0008ED000008D2B201E000F8012BEC
:10013000491EFBD270470022F6E710B513460A4667
:1001400004461946FFF7F0FF204610BD80EA010281
:1001500010B502F00043400022D04A001FD0010E2B
:1001600001EB1261C0F35600C2F3560240F40000E6
:1001700042F40002A0FB022000047F39140400D0E6
:10018000401C50EA124001D44000491EC2B20C0685
:1001900004EBD010401C4008802A02D003E000206D
:1001A00010BD20F00100002900DA0020184310BD26
:1001B0002DE9FE4F804681EA0300C00F0C460090F7
:1001C00021F0004123F00045B8EB0200A94105D21F
:1001D0004046214690461C460B46024623F000400E
:1001E000104347D0270DC7F30A00C3F30A5102900A
:1001F000401A019040286BDAC3F3130040F4801BCF
:100200000098924620B10023D2EB030A63EB0B0B5C
:1002100001985946C0F14002504600F033F90646B5
:100220000D4650465946019A00F03BF910EB080084
:100230006141002487EA115284EAE7731A4340D0EF
:10024000009A62B3019A012A4FEA075215DC001B9B
:1002500061EB02014FF0004202EA0752CDE9004291
:10026000001C41F5801132462B4600F072F903B0B4
:10027000BDE8F08F40462146F9E7001B61EB020123
:10028000001C41F5801300185B412018A2F50017EF
:1002900047EB030140EAD570B6196D4111E06D08D6
:1002A0004FEA360645EAC0754FEA0752001B61EB7C
:1002B0000201001C41F5801149084FEA3000001985
:1002C000514132462B4603B0BDE8F04F00F032B941
:1002D0000098012240000023D0EB020263EBE073A0
:1002E000009821464FEAE074B8EB000061EB04018E
:1002F000E9E783F000435BE781F0004158E72DE92F
:10030000FE4F81EA030404F0004421F00041009410
:100310004FF0000B23F0004350EA01045ED052EA94
:1003200003045BD0C3F30A54C1F30A552C44A4F26E
:10033000F3340194A0FB0254C1F3130141F4801182
:10034000C3F3130343F4801301FB024400FB034E89
:10035000840A970A44EA815447EA8357A4FB076852
:1003600002958D0A05FB07854FEA932C04FB0C547C
:100370002705029D4FEA065847EA1637B5EB0805F0
:100380006EEB070C870E920E47EA811742EA831242
:10039000A7FB0201B6EB0B0164EB00042B0D43EA53
:1003A0000C335E1844EB1C50DA465146E7FB020161
:1003B000C5F313044FEA0B3343EA14534FEA0432F4
:1003C000019C43EA0603A4F10C040294009CCDE9CD
:1003D00000B400F0BEF803B0BDE8F08F0020014685
:1003E000F9E730B4044696230800214604D0B6232A
:1003F00030BC002200F070B820460021F8E720F061
:100400000040C10DC0F3160040F400007F2901DA5E
:1004100000207047962903DCC1F19601C84070475F
:1004200096398840704700F0004230F000400AD012
:10043000C10D01F56071C0F3160042EA0151C20816
:1004400040071143704700200146704701F0004308
:1004500030B421F0004150EA010206D00A0DA2F5A5
:100460006072C1F31301002A02DC30BC0020704727
:10047000440F44EAC104C100E01830BC00EBC25094
:1004800000F021B8202A04DB203A00FA02F1002013
:1004900070479140C2F1200320FA03F319439040C2
:1004A0007047202A06DBCB17203A41FA02F043EAD4
:1004B000E07306E041FA02F3D040C2F1200291401D
:1004C0000843194670470029A8BF7047401C4900DF
:1004D00008BF20F00100704710B4B0FA80FC00FAA9
:1004E0000CF050EA010404BF10BC704749B1CCF1D4
:1004F000200421FA04F411FA0CF118BF0121214360
:100500000843A3EB0C01CB1D4FEA00614FEA10201A
:1005100042BF002010BC704700EBC35010440029BC
:10052000A4BF10BC7047401C490008BF20F0010068
:1005300010BC704710B5141E73F1000408DA401C9B
:1005400041F1000192185B411A4301D120F00100F2
:1005500010BD2DE9F04D92469B4611B1B1FA81F2E2
:1005600002E0B0FA80F220329046FFF78BFF04469B
:100570000F4640EA0A0041EA0B0153465A46084337
:1005800013D0114653EA010019D0C8F14002504679
:1005900000F040F805460E46504659464246FFF7E1
:1005A00071FF084305D0012004E020463946BDE82C
:1005B000F08D0020054346EAE0762C4337430A9845
:1005C0006305E40AA0EB08000022FD0A44EA475450
:1005D0000A3002D500200146E9E7010510196941FA
:1005E000DDE9084500196941BDE8F04DA2E70000CA
:1005F000064C074D06E0E06840F0010394E8070070
:1006000098471034AC42F6D3FFF774FD401700084A
:1006100060170008202A04DB203A21FA02F00021AA
:10062000704721FA02F3D040C2F120029140084302
:10063000194670472DE9F04D81EA030404F0004BA0
:1006400021F0004514464FF0000A23F0004150EA23
:10065000050220D054EA01021DD0C5F30A57024614
:10066000C5F31303C1F31300C1F30A5640F4801518
:1006700043F48013A7EB0608101BD64608F2FD389A
:1006800073EB050002D308F1010801E092185B4109
:10069000B8F1000F03DA00200146BDE8F08D00201C
:1006A0004FF48011064684460EE0171B73EB0507D6
:1006B00005D3121B63EB050306434CEA010C490802
:1006C0004FEA300092185B4150EA0107EDD152EA3F
:1006D000030012D082EA040083EA0501084305D032
:1006E000101BAB4106D20122002306E000224FF08E
:1006F000004302E06FF0010253101AEB06004CEBCE
:10070000085110EB0A0041EB0B01BDE8F04DFFF77B
:1007100011BF70B521F0004303430CD0C1F30A555B
:100720000024D5EB040564EB0403D617AD1AB341DE
:1007300002DB0020014670BD201841EB025170BD64
:100740000EB5C10F80EAE0700844CA07002140F2EC
:1007500033438DE80E000A460B46FFF7FAFE03B05E
:1007600000BD0EB540F2334102910021CDE90011E8
:100770000A460B46FFF7EDFE03B000BD70B5C1F3AE
:100780000A5201F000450024C1F3130140F2FF3387
:1007900041F480119A4201DA002070BD40F23343E7
:1007A0009A42A2F2334203DC5242FFF733FF00E0E9
:1007B00090402C43F1D0404270BD000000B589B09C
:1007C0000121042000F048F90121082000F044F93B
:1007D00018208DF823004FF48070ADF8200002201F
:1007E0008DF8220008A9264800F09EF818208DF800
:1007F00023004FF40050ADF8200002208DF82200B5
:1008000008A9204800F090F80121C80200F024F95E
:1008100000208DF81C00ADF816004720ADF814003C
:1008200042F20F70ADF8180005A9174800F0C2FA9F
:100830000121154800F03CFA0121134800F050FA5C
:100840006020ADF804000020ADF80E00ADF80C00FB
:100850000420ADF808000120ADF806000020ADF836
:100860000A0001A9084800F057FA0121064800F0E3
:1008700043FA0121044800F027FA09B000BD000046
:1008800000080140000C0140002C014000BFFEE7C1
:100890007047000010B586B0142101A8FFF74BFC8B
:1008A0004FF0E020006920F001004FF0E0210861E6
:1008B00000211B4A1160516001A800F0DDF84FF0E3
:1008C000E020006940F002004FF0E02108610021C3
:1008D0001448C1774FF47A710298B0FBF1F4B4F187
:1008E000807F09D3E4084FF0E020006920F0040085
:1008F0004FF0E021086107E04FF0E020006940F090
:1009000004004FF0E0210861601E4FF0E0214861D3
:100910000846006940F00100086106B010BD000003
:100920001800002000ED00E02DE9F041024600250E
:100930000026002000230024002791F803C00CF0BB
:100940000F0591F803C00CF0100CBCF1000F03D0A0
:1009500091F802C04CEA050591F800C0BCF1000F07
:1009600031D0146800202BE04FF0010C0CFA00F39A
:10097000B1F800C00CEA03069E4220D183004FF07C
:100980000F0C0CFA03F7BC4305FA03FC4CEA040411
:1009900091F803C0BCF1280F06D14FF0010C0CFAFE
:1009A00000FCC2F814C00AE091F803C0BCF1480F83
:1009B00005D14FF0010C0CFA00FCC2F810C0401C2D
:1009C0000828D1D31460B1F800C0BCF1FF0F34DDAA
:1009D000546800202EE000F1080C4FF0010808FADE
:1009E0000CF3B1F800C00CEA03069E4221D183004B
:1009F0004FF00F0C0CFA03F7BC4305FA03FC4CEA6A
:100A0000040491F803C0BCF1280F05D100F1080CD3
:100A100008FA0CF8C2F8148091F803C0BCF1480F32
:100A200007D100F1080C4FF0010808FA0CF8C2F8E1
:100A30001080401C0828CED35460BDE8F08100002F
:100A400001490868496870471800002000BFFEE7A8
:100A500000BFFEE77047704729B1064A926902431A
:100A6000044B9A6104E0034A92698243014B9A6104
:100A7000704700000010024030B500210022002421
:100A800000232D4D6D6805F00C0121B1042905D01E
:100A9000082923D105E0294D056022E0274D056096
:100AA0001FE0254D6D6805F47012234D6D6805F447
:100AB0008034022505EB92421CB9214D5543056057
:100AC0000BE01D4D6D6805F400351DB11C4D5543FF
:100AD000056002E0194D5543056002E0174D0560C1
:100AE00000BF00BF144D6D6805F0F0010909154DF8
:100AF0006B5C0568DD4045600F4D6D6805F4E06195
:100B0000090A104D6B5C4568DD4085600A4D6D68D3
:100B100005F46051C90A0B4D6B5C4568DD40C5604A
:100B2000054D6D6805F44041890B074D6B5CC56848
:100B3000B5FBF3F5056130BD0010024000127A00EC
:100B400000093D000000002010000020704710B593
:100B500000F002F810BD00000CB5002001900090DC
:100B60003348006840F480303149086000BF3048A5
:100B7000006800F4003000900198401C019000983B
:100B800018B90198B0F5A06FF1D12948006800F4B8
:100B9000003010B10120009001E00020009000988A
:100BA000012843D12348006840F010002149086023
:100BB0000846006820F0070008600846006840F01A
:100BC000020008601A4840681949486008464068B1
:100BD00048600846406840F48060486008464068C5
:100BE00020F47C1048600846406840F4E8104860F3
:100BF0000846006840F08070086000BF0C4800683C
:100C000000F000700028F9D00948406820F0030087
:100C1000074948600846406840F00200486000BF4D
:100C20000348406800F00C000828F9D10CBD000012
:100C300000100240002002400448036840685A1C2B
:100C400040F1000001490A60486070471800002028
:100C500010B51348006840F00100114908600846CB
:100C60004068104908400E494860084600680E492F
:100C700008400B4908600846006820F4802008609E
:100C80000846406820F4FE0048604FF41F0088606A
:100C9000FFF75DFF4FF000600449086010BD0000E1
:100CA000001002400000FFF8FFFFF6FE08ED00E034
:100CB00021B1028842F08002028004E002884FF6EF
:100CC0007F731A400280704721B1828842F001028E
:100CD000828004E082884FF6FE731A40828070475B
:100CE00021B1028842F00102028004E002884FF63E
:100CF000FE731A400280704731B1B0F8442042F4CC
:100D00000042A0F8442005E0B0F84420C2F30E02EF
:100D1000A0F844207047000070B500240022002392
:100D2000058C4FF6FE7635400584028C8388048B53
:100D30004FF68F752C40B51E2C400D882C43751E28
:100D40002A400D892A434D882A43144DA8420BD0CE
:100D5000134DA84208D0134DA84205D0124DA84209
:100D600002D0124DA84213D14FF6F7752A404D8993
:100D70002A434FF6FB752A408D882A434FF6FF65BC
:100D80002B404FF6FF552B408D892B43CD892B43AC
:100D900083800483CD888586028470BD002C014049
:100DA000003401400040014000440140004801403F
:100DB00081867047002202881D4B98420ED01D4B41
:100DC00098420BD0B0F1804F08D01B4B984205D011
:100DD0001A4B984202D01A4B984204D14FF68F73A7
:100DE0001A404B881A43174B984207D0164B98422B
:100DF00004D04FF6FF431A40CB881A4302808B88F9
:100E000083850B8803850A4B98420BD0094B984287
:100E100008D00E4B984205D00D4B984202D00D4B96
:100E2000984201D10B7A0386012383827047000028
:100E3000002C014000340140000400400008004044
:100E4000000C004000100040001400400040014031
:100E5000004401400048014000BFFEE7490050EA5D
:100E6000C12018BF04204A0D18BF40F0010040F215
:100E7000FF72B2EB515F08BF40F00200012808BFCB
:100E8000052070472DE9F74F144694B00021C4E9BE
:100E900002111599079121F00045C9498D4206DCE0
:100EA0001599C4E9000117B00020BDE8F08FC549CD
:100EB000DFF814A3A9423CDD0799C44E0029C44FB2
:100EC000C44A1599534619DDFFF713FA554506D064
:100ED000C14AC24BFFF70DFAC4E900010AE04FF026
:100EE000D352BE4BFFF705FA32463B46FFF701FAF5
:100EF000C4E9000117B00120BDE8F08FFFF758F9F1
:100F0000554506D0B44AB54BFFF752F9C4E9000184
:100F10000AE04FF0D352B14BFFF74AF932463B4655
:100F2000FFF746F9C4E9000117B04FF0FF30BDE804
:100F3000F08FAB49A942159978DB21F00041834637
:100F40008846A84AA84BFFF7DAF90022A74BFFF71B
:100F50002FF9FFF713FC0990FFF7F2FB06460F4647
:100F60009C4A5346FFF7CBF943465A46FFF7C4F96C
:100F700080468A46984A994B30463946FFF7BFF972
:100F80002A0D01250B9242465346FFF7B5F9032D72
:100F9000C4E9000139D00B98C1F30A51401A05EB9E
:100FA00045111139814230DA9148C346784400EB4B
:100FB0000510CDF80CA00C90D0E90023304639463E
:100FC000FFF79DF902460B46049106905846039997
:100FD000FFF78FF980468A4602460B46584603992A
:100FE000FFF787F9049B069AFFF783F983460C986D
:100FF00003913946D0E902233046FFF780F95A467B
:10100000039BFFF776F96D1CBDE707980028A2BF88
:10101000099817B0BDE8F08F616881F00041616008
:10102000099817B04042BDE8F08FFFE78446159855
:10103000C1F31301C0F30A50A0F2F5304FEA601873
:1010400000F01F06C6F120001390002006900790C4
:1010500041F4801E05206D4676B1664A08EB00011A
:101060007A4452F8213002EB8101B3404A68139967
:1010700022FA01F1194305E05F4908EB00027944C7
:1010800051F82210A1FB0E27A1FB0C131A449A421F
:1010900034BF0123002303EB070A05EB8003D3E9E8
:1010A00001B70F448F4234BF0121002193448B4488
:1010B00011B1934502D903E0934501D2012100E02B
:1010C0000021C3E901B7514445F82010011EA0F1E9
:1010D0000100C1DC0298059F00F10050800F1290C2
:1010E0000298DDE903568000FFF72AFB8346284675
:1010F0000D91FFF736FB6FF01D02FFF70AFBCDE9FC
:101100000E013046FFF72DFB6FF03D02FFF701FBAC
:1011100080468A463846FFF724FB6FF05D02FFF7F2
:10112000F8FA0746424653461191FFF741F8DDE9C8
:101130000E23FFF73DF85A460D9BFFF739F80025BF
:101140000E465A4628460D9BFFF7D3F8DDE90E23DD
:10115000FFF7CFF842465346FFF7CBF83A46119BCC
:10116000FFF7CAF8DFF898A0244A5346FFF7C7F8FC
:1011700007468846234A244B31462846FFF7BFF8E6
:101180003A464346FFF714F8074688464FF0A84210
:10119000534631462846FFF7B2F83A464346FFF732
:1011A00007F8159A12F0004F04D0129A81F000410E
:1011B00052421292C4E90001129817B0BDE8F08FB4
:1011C000FB21E93F7CD90240FB21F93F7370032EDC
:1011D0008A19A33B000040543163621A61B4D03DC8
:1011E000FB21394183C8C96D305FE43F0000E03F17
:1011F000A00600001C060000FE050000182D445447
:10120000FB21F93D3326A611460B113C2DE9FF4D7C
:1012100021F0004807460C46B8F1795F08DAFFF77D
:10122000ADFA002801BF0020324904B0BDE8F08DBE
:101230003A46234610461946FFF761F8054602462E
:101240002D480E460B460621784400F05DF82A46EC
:101250003346FFF754F8DDE9022382468B463846D1
:101260002146FFF74CF804460F4652465B46284697
:101270003146FFF744F822463B46FFF73AF8074667
:101280008A464FF0FF3228463146FFF742FA1B4AA2
:1012900090450ADA3A465346FFF72BF804B000228D
:1012A000BDE8F04D134BFFF727B8154A4245A8BFDC
:1012B000A8F500154FF00004B8BF124D22462B468A
:1012C000FFF717F80646884622462B4600200949B4
:1012D000FFF70FF804460D463A465346304641465E
:1012E000FFF707F804B022462B46BDE8F04DFFF7A4
:1012F00003B800000000F03FD40300003333D33FB5
:101300000000E93F0000D23F2DE9F0414F1E00EB05
:10131000C7010446D1E9000115461E4637F0060212
:101320000DD02A463346FEF7EAFF7F1E04EBC703C3
:10133000D3E90023FEF73CFF37F00602F1D1022F7C
:1013400025D0042F13D0062F18BFBDE8F0812A4600
:101350003346FEF7D4FFD4E90A23FEF729FF2A46D5
:101360003346FEF7CCFFD4E90823FEF721FF2A46D7
:101370003346FEF7C4FFD4E90623FEF719FF2A46D9
:101380003346FEF7BCFFD4E90423FEF711FF2A46DB
:101390003346FEF7B4FFD4E90223FEF709FF2A46DD
:1013A0003346FEF7ACFFD4E90023BDE8F041FEF779
:1013B000FFBE00002DE9FF4D054621F0004084B03E
:1013C0000C46B0F1795F0BDA2846FFF747FD042899
:1013D00008BF00F06FF8284608B02146BDE8F08D40
:1013E0002A460B461046FEF78AFF06460F462A4657
:1013F0002346FEF784FF804626488A4632463B460F
:1014000005217844FFF780FF83461098029160B36E
:10141000214A224B40465146FEF771FFCDE90001BB
:101420005A4640465146029BFEF769FF824688466F
:10143000DDE906014FF0FF32FFF76BF952464346F4
:10144000FEF757FF32463B46FEF759FFDDE906231C
:10145000FEF74FFFDDE90023FEF74BFF08B02A46F9
:101460002346BDE8F04DFEF747BF0B465A463046CF
:101470003946FEF744FF084A084BFEF799FE4246FC
:101480005346FEF73CFF08B02A462346BDE8F04D20
:10149000FEF78EBE12030000495555555555C5BF80
:1014A0000122FFF736B90022134610461146FFF716
:1014B000C1B80000024A00201107FFF72AB9000056
:1014C00001FDFFFF02E008C8121F08C1002AFAD17F
:1014D00070477047002001E001C1121F002AFBD1B4
:1014E000704700000149086070470000200000209C
:1014F00086B0FFF7CFF9FFF761F931E0FFF7A0FA07
:101500000546FEF76EFF04461649FEF71FFE0490DF
:101510000498FEF788FF8046134A144BFEF7EFFE4F
:10152000CDE9000100F02CF806460022104BFEF732
:101530003FFE044600220F4BFEF7E1FE8246FEF717
:1015400085FF03900C490398FEF700FE0446FEF762
:1015500056FF80B2029009480299FFF729FC00BFAC
:10156000CCE700006F12833A1F85EB51B81E19407B
:101570000000F03F0000E03F00401C46002C01400E
:1015800000B5254B21F0004287B09A4203DC0022CF
:10159000134600922BE0214B9A4208D140B94FF0FC
:1015A0000100FFF79FFFFFF77EFF07B000BD03DBE1
:1015B000FFF776FF07B000BD02AAFFF763FC10F04B
:1015C00003014FF001000DD0012914D002291AD0D7
:1015D0000DF1080C9CE80F00FFF718FE07B081F032
:1015E000004100BD0DF1080C00909CE80F00FFF7D2
:1015F000E1FE07B000BD0DF1080C9CE80F00FFF7FD
:1016000005FE07B000BD0DF1080C00909CE80F002E
:10161000FFF7D0FEE2E70000FB21E93F0000F07F8A
:101620004C5555555555A53F7751C1166CC156BF00
:101630009015CB19A001FA3EAD529C804F7E92BE10
:10164000C4B1B4BD9EEE213ED43888BEE9FAA8BD2F
:1016500000004054FB21F93F3163621A61B4D03D70
:101660000000601A61B4D03D7370032E8A19A33B49
:101670000000002E8A19A33BC14920259A837B399B
:1016800000000000000000006E83F9A22915444EFE
:10169000D15727FCC0DD34F5999562DB4190433C7E
:1016A000AB6351FE61C5BBDE3A6E24B7E0D24D425A
:1016B000EA2E49061C92D1091CEB1DFE3EA729B15A
:1016C000F53582E88444BB2E26709CE9417E5FB4E8
:1016D00039D69139F43953838B5F849C3B28F9BD0B
:1016E000FF97F81F0F9805DE8B112FEF1F6D0A5A19
:1016F000CF7E366DB709CB27663F464F2DEA5F9EFA
:10170000C7BA27757BF1E5EBF739073DEA92528AB4
:10171000B15FFB6B085D8D1FA6F810111111813FA1
:10172000D561C119A0012ABF7DFEB157E31DC73E97
:10173000EB9C2B8AE6E55ABE7CD5CF5A3AD9E53DDB
:10174000601700080000002024000000C4140008F6
:10175000841700082400002004100000D41400089E
:101760000000000001020304010203040607080947
:101770000204060800000000000000000000000055
:041780000000000065
:04000005080000ED02
:00000001FF
