:020000040800F2
:10000000601000200501000851060008F5040008F2
:10001000F904000895020008E70B00080000000042
:10002000000000000000000000000000BD08000803
:100030009902000800000000C5070008A90900088F
:100040001F0100081F0100081F0100081F01000810
:100050001F0100081F0100081F0100081F01000800
:100060001F0100081F0100081F0100081F010008F0
:100070001F0100081F0100081F0100081F010008E0
:100080001F0100081F0100081F0100081F010008D0
:100090001F0100081F0100081F0100081F010008C0
:1000A0001F0100081F0100081F0100081F010008B0
:1000B0001F0100081F0100081F0100081F010008A0
:1000C0001F0100081F0100081F0100081F01000890
:1000D0001F010008210A00081F0100081F01000875
:1000E0001F0100081F0100081F010008DFF810D0E1
:1000F00000F034F8004800470D0C0008AFF3008012
:10010000601000200648804706480047FEE7FEE7EB
:10011000FEE7FEE7FEE7FEE7FEE7FEE7FEE7FEE7B7
:10012000C1090008ED000008D2B201E000F8012B7F
:10013000491EFBD270470022F6E710B513460A4667
:1001400004461946FFF7F0FF204610BD421C10F888
:10015000011B0029FBD1801A70470000064C074D97
:1001600006E0E06840F0010394E807009847103487
:10017000AC42F6D3FFF7BEFF780C0008980C0008DD
:1001800008B50121102000F01FFB4FF40050ADF81E
:10019000000014208DF8030002208DF8020069464B
:1001A000014800F007F908BD0010014000B589B012
:1001B00024216846FFF7BFFF064800900120ADF8F4
:1001C0000400054804906946044800F097F909B016
:1001D00000BD000000080140090C000820000020BC
:1001E00000B587B00121042000F0EEFA4FF4007052
:1001F000ADF8180018208DF81B0002208DF81A00A9
:1002000006A9224800F0D6F80121042000F0DCFA0B
:100210004FF48060ADF8180048208DF81B0006A947
:100220001A4800F0C7F80121880300F0CDFA4FF416
:10023000E13002900020ADF814000C20ADF812005F
:100240000020ADF80C00ADF81000ADF80E0002A9CA
:100250000F4800F053FC01210D4800F011FC012271
:1002600040F225510A4800F024FC25208DF80400B6
:1002700000208DF805008DF8060001208DF807009C
:1002800001A800F0E7F907B000BD00000008014038
:100290000038014000BFFEE77047000030B5074B53
:1002A0001D685B68291843F1000200BF034B1C68FE
:1002B0005B68641A9341F9D330BD00001800002038
:1002C00010B586B0142101A8FFF735FF4FF0E020EC
:1002D000006920F001004FF0E021086100211B4A75
:1002E0001160516001A800F07FFA4FF0E020006932
:1002F00040F002004FF0E021086100211448C1776E
:100300004FF47A710298B0FBF1F4B4F1807F09D315
:10031000E4084FF0E020006920F004004FF0E021F5
:10032000086107E04FF0E020006940F004004FF062
:10033000E0210861601E4FF0E02148610846006935
:1003400040F00100086106B010BD00001800002058
:1003500000ED00E070B504460D460DB1012000E04F
:10036000002006460F48844204D13146042000F0A4
:100370002BFA16E00C48844204D13146082000F0E4
:1003800023FA0EE00948844204D13146102000F0DF
:100390001BFA06E00648844203D13146202000F0D3
:1003A00013FA70BD00080140000C0140001001402C
:1003B000001401402DE9F0410246002500260020EE
:1003C00000230024002791F803C00CF00F0591F8DA
:1003D00003C00CF0100CBCF1000F03D091F802C068
:1003E0004CEA050591F800C0BCF1000F31D014684B
:1003F00000202BE04FF0010C0CFA00F3B1F800C024
:100400000CEA03069E4220D183004FF00F0C0CFA39
:1004100003F7BC4305FA03FC4CEA040491F803C05B
:10042000BCF1280F06D14FF0010C0CFA00FCC2F809
:1004300014C00AE091F803C0BCF1480F05D14FF099
:10044000010C0CFA00FCC2F810C0401C0828D1D3E3
:100450001460B1F800C0BCF1FF0F34DD5468002017
:100460002EE000F1080C4FF0010808FA0CF3B1F887
:1004700000C00CEA03069E4221D183004FF00F0C0E
:100480000CFA03F7BC4305FA03FC4CEA040491F8A8
:1004900003C0BCF1280F05D100F1080C08FA0CF8D4
:1004A000C2F8148091F803C0BCF1480F07D100F1E5
:1004B000080C4FF0010808FA0CF8C2F81080401C34
:1004C0000828CED35460BDE8F0810246002093682E
:1004D0000B400BB1012000E0002070470AB1016120
:1004E00000E04161704700000149086849687047B1
:1004F0001800002000BFFEE700BFFEE738B5044645
:100500000D4628682060A888A080A868A060E868D8
:10051000E0602869206168696061A869A061286A53
:100520002062E869E06101212068FFF713FFA088DD
:10053000ADF8000048208DF8030069462068FFF7F9
:1005400039FFA06910B94FF47A70A061E06908B969
:100550006420E061206A08B9C8202062002004F805
:10056000240F60706060A060E06020742076243CFE
:1005700038BD70B50446FFF7B7FF064694F825006E
:10058000F8B1A06A0A30B0422CD8A1882068FFF7E1
:100590009CFF08B9012000E00020054694F82400E3
:1005A000A84208D0012D03D1204600F0E5F802E072
:1005B000204600F0EBF884F82450002084F8250051
:1005C00010E0A1882068FFF780FF08B9012000E053
:1005D0000020054694F82400A84203D0A66201201A
:1005E00084F8250094F824103246204600F074F870
:1005F00070BD2DE9F04107460E4614460CB9BDE822
:10060000F08100250CE000BF8021384600F044FA5C
:100610000028F9D0715D384600F0E1FA681C85B217
:10062000A542F0DB00BF4021384600F035FA002833
:10063000F9D000BFE3E770B505460C462046FFF74A
:1006400085FD86B2324621462846FFF7D2FF70BDAF
:100650007047000070B5002100230F22C47804B356
:10066000154C246804F4E064C4F5E064210AC1F187
:100670000403CA40447804FA03F184781440214307
:1006800009010E4C0678A155047804F01F050124D9
:10069000AC4005786D11AD0005F1E025C5F80041CD
:1006A00009E0047804F01F050124AC40044D0678ED
:1006B000761145F8264070BD0CED00E000E400E046
:1006C00080E100E002490143024A116070470000E6
:1006D0000000FA050CED00E02DE9F04104460E465D
:1006E000154694F82400012829D194F8340098B9CB
:1006F000E06A20B3E06A281AA16988421FD9012064
:1007000084F83400606918B194F83400616988474E
:10071000FFF7EAFEA06312E0A06B281AE1698842A5
:100720000DD9FFF7E1FEA06394F83400401C84F873
:100730003400606918B194F834006169884794F80E
:100740003C00002816DD94F8240098B9FFF7CCFE91
:10075000226B831A61F100010020226AD21A8841BB
:1007600008D2206918B194F83C002169884700201C
:1007700084F83C00BDE8F08110B50446FFF7B4FEF4
:10078000E062A06808B1A068804710BD10B50446BB
:10079000FFF7AAFE2063E06808B1E0688047002008
:1007A00084F83400D4E90B10401AA169884205D2BC
:1007B00094F83C00401C84F83C0002E0002084F8DF
:1007C0003C0010BD7047000029B1064A92690243FF
:1007D000044B9A6104E0034A92698243014B9A6197
:1007E000704700000010024030B5002100220024B4
:1007F00000232D4D6D6805F00C0121B1042905D0B1
:10080000082923D105E0294D056022E0274D056028
:100810001FE0254D6D6805F47012234D6D6805F4D9
:100820008034022505EB92421CB9214D55430560E9
:100830000BE01D4D6D6805F400351DB11C4D554391
:10084000056002E0194D5543056002E0174D056053
:1008500000BF00BF144D6D6805F0F0010909154D8A
:100860006B5C0568DD4045600F4D6D6805F4E06127
:10087000090A104D6B5C4568DD4085600A4D6D6866
:1008800005F46051C90A0B4D6B5C4568DD40C560DD
:10089000054D6D6805F44041890B074D6B5CC568DB
:1008A000B5FBF3F5056130BD0010024000127A007F
:1008B00000093D000400002014000020704710B51E
:1008C00000F002F810BD00000CB50020019000906F
:1008D0003348006840F480303149086000BF304838
:1008E000006800F4003000900198401C01900098CE
:1008F00018B90198B0F5A06FF1D12948006800F44B
:10090000003010B10120009001E00020009000981C
:10091000012843D12348006840F0100021490860B5
:100920000846006820F0070008600846006840F0AC
:10093000020008601A484068194948600846406843
:1009400048600846406840F4806048600846406857
:1009500020F47C1048600846406840F4E810486085
:100960000846006840F08070086000BF0C480068CE
:1009700000F000700028F9D00948406820F003001A
:10098000074948600846406840F00200486000BFE0
:100990000348406800F00C000828F9D10CBD0000A5
:1009A00000100240002002400448036840685A1CBE
:1009B00040F1000001490A604860704718000020BB
:1009C00010B51348006840F001001149086008465E
:1009D0004068104908400E494860084600680E49C2
:1009E00008400B4908600846006820F48020086031
:1009F0000846406820F4FE0048604FF41F008860FD
:100A0000FFF75DFF4FF000600449086010BD000073
:100A1000001002400000FFF8FFFFF6FE08ED00E0C6
:100A200010B52021144800F037F8012822D11248CF
:100A300000F0D0F8C4B2302C04D142F20F700F494C
:100A4000086016E0312C03D132200C49086010E018
:100A5000322C03D1C820094908600AE0332C04D1A4
:100A60004FF47A700549086003E04FF47A70034947
:100A7000086000BF10BD00000038014000000020E9
:100A800021B1828942F40052828104E082894DF6CC
:100A9000FF731A408281704702460020B1F5007F43
:100AA00000D100BF13880B400BB1012000E00020F3
:100AB0007047F0B50346002400260025002040F6CC
:100AC0006A17B94200D100BF1846C1F3421401F0C1
:100AD0001F06012707FA06F5012C01D10C3004E0AE
:100AE000022C01D1103000E014301AB107682F43F6
:100AF000076002E00768AF430760F0BD2DE9F047EB
:100B000086B005460E460024A24600BFA146002737
:100B1000B08900B100BF2F462C8A4CF6FF7004400C
:100B2000F08804432C82AC894EF6F3100440B08860
:100B300031890843718908430443AC81AC8A4FF67C
:100B4000FF400440B0890443AC8201A8FFF74CFE8B
:100B50001F48874202D1DDF810A001E0DDF80CA0AB
:100B6000A88900F4004040B10AEBCA0000EB0A106B
:100B700031684900B0FBF1F807E00AEBCA0000EB6E
:100B80000A1031688900B0FBF1F86420B8FBF0F07E
:100B900004012009642101FB1089A88900F40040A8
:100BA00040B1322000EBC900B0FBF1F000F00700CB
:100BB000044308E0322000EB09106421B0FBF1F09F
:100BC00000F00F0004432C8106B0BDE8F087000060
:100BD0000038014001468888C0F308007047C1F31F
:100BE00008028280704700BFFEE702E008C8121FBB
:100BF00008C1002AFAD170477047002001E001C106
:100C0000121F002AFBD17047704700004FF4A0600C
:100C1000FFF758FDFFF754FBFFF7C8FAFFF7B0FAEC
:100C2000FFF7DEFA0DA11048FFF705FD15E00F48AC
:100C3000FFF79FFC00224FF400510D48FFF74EFCD8
:100C40000C480068FFF72AFB012251030848FFF710
:100C500045FC08480068FFF721FBE8E748656C6C35
:100C60006F20576F726C6400003801402000002034
:100C70000010014000000020980C00080000002037
:100C800020000000EA0B0008B80C0008200000203B
:100C900040100000FA0B0008E8030000000000000C
:100CA00001020304010203040607080902040608FE
:080CB00000000000000000003C
:04000005080000ED02
:00000001FF
