:020000040800F2
:1000000028100020050100080F0500085103000812
:100010000B050008710100086D07000800000000D2
:1000200000000000000000000000000009060008B9
:10003000750100080000000011050008F506000821
:100040001F0100081F0100081F0100081F01000810
:100050001F0100081F0100081F0100081F01000800
:100060001F0100081F0100081F0100081F010008F0
:100070001F0100081F0100081F0100081F010008E0
:100080001F0100081F0100081F0100081F010008D0
:100090001F0100081F0100081F0100081F010008C0
:1000A0001F0100081F0100081F0100081F010008B0
:1000B0001F0100081F0100081F0100081F010008A0
:1000C0001F0100081F0100081F0100081F01000890
:1000D0001F0100081F0100081F0100081F01000880
:1000E0001F0100081F0100081F010008DFF810D0E1
:1000F00000F02CF80048004791070008AFF300809B
:10010000281000200648804706480047FEE7FEE723
:10011000FEE7FEE7FEE7FEE7FEE7FEE7FEE7FEE7B7
:100120000D070008ED000008D2B201E000F8012B35
:10013000491EFBD270470022F6E710B513460A4667
:1001400004461946FFF7F0FF204610BD064C074D48
:1001500006E0E06840F0010394E807009847103497
:10016000AC42F6D3FFF7C6FFA0090008C00900089B
:1001700000BFFEE77047000030B5074B1D685B68A5
:10018000291843F1000200BF034B1C685B68641A26
:100190009341F9D330BD00001800002010B586B09F
:1001A000142101A8FFF7C7FF4FF0E020006920F0FD
:1001B00001004FF0E021086100211B4A11605160ED
:1001C00001A800F0B7F94FF0E020006940F002000C
:1001D0004FF0E021086100211448C1774FF47A7193
:1001E0000298B0FBF1F4B4F1807F09D3E4084FF03A
:1001F000E020006920F004004FF0E021086107E0F2
:100200004FF0E020006940F004004FF0E021086169
:10021000601E4FF0E02148610846006940F001008F
:10022000086106B010BD00001800002000ED00E0DD
:100230002DE9F0410246002500260020002300247D
:10024000002791F803C00CF00F0591F803C00CF0E3
:10025000100CBCF1000F03D091F802C04CEA050568
:1002600091F800C0BCF1000F31D0146800202BE0E1
:100270004FF0010C0CFA00F3B1F800C00CEA0306D1
:100280009E4220D183004FF00F0C0CFA03F7BC43C1
:1002900005FA03FC4CEA040491F803C0BCF1280FF2
:1002A00006D14FF0010C0CFA00FCC2F814C00AE0B1
:1002B00091F803C0BCF1480F05D14FF0010C0CFAC6
:1002C00000FCC2F810C0401C0828D1D31460B1F85B
:1002D00000C0BCF1FF0F34DD546800202EE000F1B7
:1002E000080C4FF0010808FA0CF3B1F800C00CEA52
:1002F00003069E4221D183004FF00F0C0CFA03F746
:10030000BC4305FA03FC4CEA040491F803C0BCF1B9
:10031000280F05D100F1080C08FA0CF8C2F8148077
:1003200091F803C0BCF1480F07D100F1080C4FF061
:10033000010808FA0CF8C2F81080401C0828CED337
:100340005460BDE8F0810AB1016100E0416170478D
:1003500000BFFEE710B5002409E0611CC8B200210F
:1003600000F0E2FA002003490855601CC4B2082CD2
:10037000F3DB10BD200000202DE9F05F0746884622
:1003800091461C460A9E002C23DB002E21DB002513
:100390001CE02919A8F10100814200DD18E0681C69
:1003A000204400F0FF0A785DB04000F0FF0B2819F0
:1003B0003E49085C40EA0B0029193C4A5054281970
:1003C000115C504600F0B0FA681CC5B24D45E0DB48
:1003D00069E0002C21DA002E1FDB00251AE0291B22
:1003E000A8F10100814200DD16E0681C00F0FF0A60
:1003F000281B385CB04000F0FF0B2C48405D40EA01
:100400000B002A4948550846415D504600F08CFAD9
:10041000681CC5B24D45E2DB45E0002C23DB002E15
:1004200021DA00251CE02919A8F10100814200DD34
:1004300018E0681C204400F0FF0A785D714240FA21
:1004400001FB28191949085C40EA0B002919174AD1
:1004500050542819115C504600F066FA681CC5B269
:100460004D45E0DB1FE000251AE0291BA8F1010043
:10047000814200DD16E0681C00F0FF0A281B385C92
:10048000714240FA01FB0948405D40EA0B00074910
:1004900048550846415D504600F046FA681CC5B212
:1004A0004D45E2DB00BFBDE8F09F000020000020CA
:1004B00010B5002409E0611CC8B2FF2100F034FA35
:1004C000FF2003490855601CC4B2082CF3DB10BDA3
:1004D0002000002010B50021092000F025FA072196
:1004E0000B2000F021FA01210C2000F01DFA002160
:1004F0000F2000F019FAFFF72DFF10BD10B50446CC
:1005000021460A2000F010FA10BD00BFFEE7704738
:100510007047000029B1064A92690243044B9A6170
:1005200004E0034A92698243014B9A6170470000DC
:100530000010024030B500210022002400232D4D80
:100540006D6805F00C0121B1042905D0082923D1DB
:1005500005E0294D056022E0274D05601FE0254D8F
:100560006D6805F47012234D6D6805F48034022522
:1005700005EB92421CB9214D554305600BE01D4D22
:100580006D6805F400351DB11C4D5543056002E052
:10059000194D5543056002E0174D056000BF00BFCF
:1005A000144D6D6805F0F0010909154D6B5C056887
:1005B000DD4045600F4D6D6805F4E061090A104D9E
:1005C0006B5C4568DD4085600A4D6D6805F46051DF
:1005D000C90A0B4D6B5C4568DD40C560054D6D6813
:1005E00005F44041890B074D6B5CC568B5FBF3F51D
:1005F000056130BD0010024000127A0000093D0084
:100600000000002010000020704710B500F002F834
:1006100010BD00000CB50020019000903348006828
:1006200040F480303149086000BF3048006800F471
:10063000003000900198401C0190009818B9019872
:10064000B0F5A06FF1D12948006800F4003010B176
:100650000120009001E0002000900098012843D183
:100660002348006840F010002149086008460068EF
:1006700020F0070008600846006840F002000860AB
:100680001A4840681949486008464068486008466A
:10069000406840F4806048600846406820F47C1060
:1006A00048600846406840F4E81048600846006822
:1006B00040F08070086000BF0C48006800F00070D7
:1006C0000028F9D00948406820F003000749486035
:1006D0000846406840F00200486000BF0348406898
:1006E00000F00C000828F9D10CBD000000100240F9
:1006F000002002400448036840685A1C40F1000092
:1007000001490A60486070471800002010B513487E
:10071000006840F00100114908600846406810492F
:1007200008400E494860084600680E4908400B49D9
:1007300008600846006820F4802008600846406889
:1007400020F4FE0048604FF41F008860FFF75DFF53
:100750004FF000600449086010BD00000010024026
:100760000000FFF8FFFFF6FE08ED00E000BFFEE727
:1007700002E008C8121F08C1002AFAD1704770476A
:10078000002001E001C1121F002AFBD170470000C8
:100790008CB0FFF703FD01211020FFF7BBFE4FF4E3
:1007A0000050ADF82C0010208DF82F0002208DF89D
:1007B0002E000BA95048FFF73BFD01210420FFF755
:1007C000A9FE0720ADF82C0010208DF82F00022084
:1007D0008DF82E000BA94948FFF72AFDFFF77AFE96
:1007E00047A003C8CDE9090147A103C9CDE9070125
:1007F00047A103C9CDE9050147A103C9CDE903011B
:1008000047A103C9CDE90101FFF7A4FD0020FFF7CF
:1008100075FE6FE000224FF400513748FFF793FD5B
:100820003220FFF7A9FC012251033348FFF78BFD6B
:100830004FF47A70FFF7A0FC6FF0060416E0FFF7A4
:1008400089FD0020234608221146009009A8FFF7E1
:1008500093FD0020634208221146009007A8FFF78D
:100860008BFD4FF49670FFF787FC641C012CE6DBD0
:100870004FF47A70FFF780FCFFF76CFD4FF47A704D
:10088000FFF77AFC0020034608221146009005A8D5
:10089000FFF772FD4FF47A70FFF76EFCFFF75AFD19
:1008A0004FF47A70FFF768FC0020034608221146D7
:1008B000009001A8FFF760FD4FF47A70FFF75CFC31
:1008C000FFF748FD4FF47A70FFF756FC002003460F
:1008D00008221146009003A8FFF74EFD4FF47A70EE
:1008E000FFF74AFCFFF7E4FD4FF47A70FFF744FC92
:1008F000FFF730FD8EE700000010014000080140C6
:100900001C3E7EB40000000000000048FC7E3E1C3F
:1009100010207FC25A5A4246083818181818183C36
:100920000066FFFFFF7E3C1870B505460C460022AE
:1009300002210748FFF707FD284600F00BF8204684
:1009400000F008F8012202210148FFF7FCFC70BD0D
:100950000008014070B5044608251BE00022042170
:100960000E48FFF7F0FC04F0800028B10122114688
:100970000A48FFF7E8FC04E0002201210748FFF7DE
:10098000E2FC6006040E012204210448FFF7DBFCB0
:10099000681EC5B2012DE1DA70BD000000080140FB
:1009A000C0090008000000202800000070070008AF
:1009B000E809000828000020001000008007000857
:1009C00000000000010203040102030406070809F5
:1009D0000204060800000000000000000000000003
:0809E00000000000000000000F
:04000005080000ED02
:00000001FF
