:020000040800F2
:1000000020100020050100084705000863030008D0
:100010006703000871010008F908000800000000EB
:10002000000000000000000000000000C9060008F9
:10003000750100080000000049050008810800085B
:100040001F0100081F0100081F0100081F01000810
:100050001F0100081F0100081F0100081F01000800
:100060001F0100081F0100081F0100081F010008F0
:100070001F0100081F0100081F0100081F010008E0
:100080001F0100081F0100081F0100081F010008D0
:100090001F0100081F0100081F0100081F010008C0
:1000A0001F0100081F0100081F0100081F010008B0
:1000B0001F0100081F0100081F0100081F010008A0
:1000C0001F0100081F0100081F0100081F01000890
:1000D0001F0100081F0100081F0100081F01000880
:1000E0001F0100081F0100081F010008DFF810D0E1
:1000F00000F02CF80048004729090008AFF3008001
:10010000201000200648804706480047FEE7FEE72B
:10011000FEE7FEE7FEE7FEE7FEE7FEE7FEE7FEE7B7
:1001200099080008ED000008D2B201E000F8012BA8
:10013000491EFBD270470022F6E710B513460A4667
:1001400004461946FFF7F0FF204610BD064C074D48
:1001500006E0E06840F0010394E807009847103497
:10016000AC42F6D3FFF7C6FFBC090008DC09000863
:1001700000BFFEE77047000030B5074B1D685B68A5
:10018000291843F1000200BF034B1C685B68641A26
:100190009341F9D330BD00001800002010B586B09F
:1001A000142101A8FFF7C7FF4FF0E020006920F0FD
:1001B00001004FF0E021086100211B4A11605160ED
:1001C00001A800F0D3F94FF0E020006940F00200F0
:1001D0004FF0E021086100211448C1774FF47A7193
:1001E0000298B0FBF1F4B4F1807F09D3E4084FF03A
:1001F000E020006920F004004FF0E021086107E0F2
:100200004FF0E020006940F004004FF0E021086169
:10021000601E4FF0E02148610846006940F001008F
:10022000086106B010BD00001800002000ED00E0DD
:100230002DE9F0410246002500260020002300247D
:10024000002791F803C00CF00F0591F803C00CF0E3
:10025000100CBCF1000F03D091F802C04CEA050568
:1002600091F800C0BCF1000F31D0146800202BE0E1
:100270004FF0010C0CFA00F3B1F800C00CEA0306D1
:100280009E4220D183004FF00F0C0CFA03F7BC43C1
:1002900005FA03FC4CEA040491F803C0BCF1280FF2
:1002A00006D14FF0010C0CFA00FCC2F814C00AE0B1
:1002B00091F803C0BCF1480F05D14FF0010C0CFAC6
:1002C00000FCC2F810C0401C0828D1D31460B1F85B
:1002D00000C0BCF1FF0F34DD546800202EE000F1B7
:1002E000080C4FF0010808FA0CF3B1F800C00CEA52
:1002F00003069E4221D183004FF00F0C0CFA03F746
:10030000BC4305FA03FC4CEA040491F803C0BCF1B9
:10031000280F05D100F1080C08FA0CF8C2F8148077
:1003200091F803C0BCF1480F07D100F1080C4FF061
:10033000010808FA0CF8C2F81080401C0828CED337
:100340005460BDE8F0810246002093680B400BB179
:10035000012000E0002070470AB1016100E0416126
:10036000704700BFFEE700BFFEE7000038B5044657
:1003700035492068884204D10121042000F0E6F8C4
:1003800019E032492068884204D10121082000F098
:10039000DDF810E02E492068884204D101211020A8
:1003A00000F0D4F807E02B492068884203D10121EE
:1003B000202000F0CBF8A1890122A068FFF7CCFF34
:1003C000A18801222068FFF7C7FF1F49A068884263
:1003D00004D10121042000F0B9F819E01B49A068FC
:1003E000884204D10121082000F0B0F810E018493B
:1003F000A068884204D10121102000F0A7F807E08E
:100400001449A068884203D10121202000F09EF801
:10041000A088ADF8000014208DF8030002208DF8AC
:10042000020069462068FFF703FFA089ADF80000CD
:1004300014208DF8030002208DF802006946A068A0
:10044000FFF7F6FE38BD000000080140000C014037
:1004500000100140001401402DE9F04104460F4610
:1004600090461E46A1890122A068FFF775FFA1886A
:1004700001222068FFF770FFA1890022A068FFF722
:100480006BFF012000F049FA47F00101204600F01F
:100490001CF930B1204600F05BF94FF0FF30BDE8A9
:1004A000F08100250DE0701EA84201D1012000E07E
:1004B00000200146204600F0C3F808F80500681C3B
:1004C00085B2B542EFDB204600F042F90020E6E7B6
:1004D0002DE9F04104460E4617469846A1890122AF
:1004E000A068FFF739FFA18801222068FFF734FFD9
:1004F000A1890022A068FFF72FFF012000F00DFA6C
:1005000006F0FE01204600F0E0F830B1204600F091
:100510001FF94FF0FF30BDE8F08100250CE0795D58
:10052000204600F0D2F828B1204600F011F96FF013
:100530000100F0E7681C85B24545F0DB204600F07D
:1005400007F90020E7E770477047000029B1064A25
:1005500092690243044B9A6104E0034A9269824320
:10056000014B9A61704700000010024030B5002135
:100570000022002400232D4D6D6805F00C0121B1EF
:10058000042905D0082923D105E0294D056022E082
:10059000274D05601FE0254D6D6805F47012234D51
:1005A0006D6805F48034022505EB92421CB9214D9B
:1005B000554305600BE01D4D6D6805F400351DB118
:1005C0001C4D5543056002E0194D5543056002E09E
:1005D000174D056000BF00BF144D6D6805F0F001B8
:1005E0000909154D6B5C0568DD4045600F4D6D6870
:1005F00005F4E061090A104D6B5C4568DD408560DB
:100600000A4D6D6805F46051C90A0B4D6B5C456875
:10061000DD40C560054D6D6805F44041890B074D0F
:100620006B5CC568B5FBF3F5056130BD0010024099
:1006300000127A0000093D00000000201000002098
:100640002DE9F04104460E460027072523E0A18846
:1006500000222068FFF780FEA1890122A068FFF731
:100660007BFE022000F059F9A18801222068FFF7E3
:1006700073FE022000F051F9A189A068FFF763FE24
:10068000012800D100E0002018B10120A840384323
:10069000C7B2681E45B2002DD9DAA18800222068B1
:1006A000FFF75AFE2EB1A1890022A068FFF754FE81
:1006B00004E0A1890122A068FFF74EFE022000F0AD
:1006C0002CF93846BDE8F081704770B504460E46F7
:1006D00007251DE0A18800222068FFF73DFE0123C9
:1006E000AB4033400BB1012300E000231A46A1893F
:1006F000A068FFF731FE022000F00FF9A188012267
:100700002068FFF729FE022000F007F9681E45B2B5
:10071000002DDFDAA18800222068FFF71DFEA189E5
:100720000122A068FFF718FE022000F0F6F8A18869
:1007300001222068FFF710FE022000F0EEF8A189E8
:10074000A068FFF700FE012800D170BD0020FCE783
:1007500010B50446A18800222068FFF7FDFD0120A6
:1007600000F0DBF8A1890022A068FFF7F5FD012069
:1007700000F0D3F8A18801222068FFF7EDFD0120E9
:1007800000F0CBF8A1890122A068FFF7E5FD012068
:1007900000F0C3F810BD10B500F002F810BD000065
:1007A0000CB50020019000903348006840F4803080
:1007B0003149086000BF3048006800F40030009004
:1007C0000198401C0190009818B90198B0F5A06FED
:1007D000F1D12948006800F4003010B101200090E8
:1007E00001E0002000900098012843D123480068D0
:1007F00040F01000214908600846006820F007001A
:1008000008600846006840F0020008601A48406826
:10081000194948600846406848600846406840F406
:10082000806048600846406820F47C1048600846B4
:10083000406840F4E81048600846006840F0807066
:10084000086000BF0C48006800F000700028F9D074
:100850000948406820F0030007494860084640689E
:1008600040F00200486000BF0348406800F00C0000
:100870000828F9D10CBD0000001002400020024001
:100880000448036840685A1C40F1000001490A60AE
:10089000486070471800002010B51348006840F009
:1008A00001001149086008464068104908400E4997
:1008B0004860084600680E4908400B490860084631
:1008C000006820F4802008600846406820F4FE009C
:1008D00048604FF41F008860FFF75DFF4FF0006035
:1008E0000449086010BD0000001002400000FFF83D
:1008F000FFFFF6FE08ED00E000BFFEE702E008C8DB
:10090000121F08C1002AFAD170477047002001E089
:1009100001C1121F002AFBD17047002100E0491CD1
:10092000C2008A42FBD8704788B0FFF737FC01212C
:100930001020FFF70BFE4FF40050ADF81C00142000
:100940008DF81F0002208DF81E0007A91748FFF739
:100950006FFC174803900120ADF810001448059073
:100960000220ADF8180003A8FFF700FD11A103C98C
:10097000CDE90101052301AA782103A8FFF7A8FD0D
:1009800001236A46782103A8FFF766FD9DF8000061
:1009900000F0400040B900224FF400510348FFF737
:1009A000DBFC0A20FFF7E8FB00BFFEE70010014078
:1009B00000080140008D14AFA5000000DC0900080C
:1009C0000000002020000000FC080008FC090008CE
:1009D00020000020001000000C09000800000000AA
:1009E00001020304010203040607080902040608C1
:0C09F000000000000000000000000000FB
:04000005080000ED02
:00000001FF
