:020000040800F2
:1000000020100020050100080D070008E303000888
:100010007B05000871010008A90900080000000024
:10002000000000000000000000000000450800087B
:1000300075010008000000000F07000831090008E2
:100040001F0100081F0100081F0100081F01000810
:100050001F0100081F0100081F0100081F01000800
:100060001F0100081F0100081F0100081F010008F0
:100070001F0100081F0100081F0100081F010008E0
:100080001F0100081F0100081F0100081F010008D0
:100090001F0100081F0100081F0100081F010008C0
:1000A0001F0100081F0100081F0100081F010008B0
:1000B0001F0100081F0100081F0100081F010008A0
:1000C0001F0100081F0100081F0100081F01000890
:1000D0001F0100081F0100081F0100081F01000880
:1000E0001F0100081F0100081F010008DFF810D0E1
:1000F00000F02CF800480047CD090008AFF300805D
:10010000201000200648804706480047FEE7FEE72B
:10011000FEE7FEE7FEE7FEE7FEE7FEE7FEE7FEE7B7
:1001200049090008ED000008D2B201E000F8012BF7
:10013000491EFBD270470022F6E710B513460A4667
:1001400004461946FFF7F0FF204610BD064C074D48
:1001500006E0E06840F0010394E807009847103497
:10016000AC42F6D3FFF7C6FF480A0008680A000849
:1001700000BFFEE77047000030B5074B1D685B68A5
:10018000291843F1000200BF034B1C685B68641A26
:100190009341F9D330BD00001800002010B586B09F
:1001A000142101A8FFF7C7FF4FF0E020006920F0FD
:1001B00001004FF0E021086100211B4A11605160ED
:1001C00001A800F0D5FA4FF0E020006940F00200ED
:1001D0004FF0E021086100211448C1774FF47A7193
:1001E0000298B0FBF1F4B4F1807F09D3E4084FF03A
:1001F000E020006920F004004FF0E021086107E0F2
:100200004FF0E020006940F004004FF0E021086169
:10021000601E4FF0E02148610846006940F001008F
:10022000086106B010BD00001800002000ED00E0DD
:100230002DE9F0410246002500260020002300247D
:10024000002791F803C00CF00F0591F803C00CF0E3
:10025000100CBCF1000F03D091F802C04CEA050568
:1002600091F800C0BCF1000F31D0146800202BE0E1
:100270004FF0010C0CFA00F3B1F800C00CEA0306D1
:100280009E4220D183004FF00F0C0CFA03F7BC43C1
:1002900005FA03FC4CEA040491F803C0BCF1280FF2
:1002A00006D14FF0010C0CFA00FCC2F814C00AE0B1
:1002B00091F803C0BCF1480F05D14FF0010C0CFAC6
:1002C00000FCC2F810C0401C0828D1D31460B1F85B
:1002D00000C0BCF1FF0F34DD546800202EE000F1B7
:1002E000080C4FF0010808FA0CF3B1F800C00CEA52
:1002F00003069E4221D183004FF00F0C0CFA03F746
:10030000BC4305FA03FC4CEA040491F803C0BCF1B9
:10031000280F05D100F1080C08FA0CF8C2F8148077
:1003200091F803C0BCF1480F07D100F1080C4FF061
:10033000010808FA0CF8C2F81080401C0828CED337
:100340005460BDE8F0810000F0B50A4600230024A7
:100350000021002500F00046B6F1004F02D11D4EED
:10036000F16901E01B4E7168C0F3034583B200F4EC
:100370004016B6F5401F08D121F07061154E766821
:1003800026F07066134F7E6012E000F48016B6F51A
:10039000801F06D1032606FA05F4A14341F07061DF
:1003A00006E0460D360103FA06F6B14341F07061EE
:1003B00022B1460D360103FA06F6314300F000463D
:1003C000B6F1004F02D1034EF16101E0014E7160C0
:1003D000F0BD0000000001400AB1016100E0416190
:1003E000704700BFFEE7002221F07F42D3438382A3
:1003F000704721B1028842F00102028004E00288C5
:100400004FF6FE731A400280704721B1028842F411
:100410008072028004E002884FF6FF631A40028077
:10042000704721B1028842F40072028004E0028821
:100430004FF6FF531A40028070470CB50246002069
:1004400000230193009300920B0F019321F07F4151
:10045000019B1BB1009B1433009303E0090C009B2C
:1004600018330093009B1B680B400BB1012000E088
:1004700000200CBD2DE9F04385B004460D46002652
:10048000B1460427DFF8CC80A6884FF6C07006403E
:10049000684600F06DF9DDF808802F48B8FBF0F0F1
:1004A0001FFA80F946EA0906A68020884FF6FE71F9
:1004B0000840208000262949286888420CD82868EE
:1004C0004000B8FBF0F087B2042F00DA04273E4367
:1004D00009F10100208427E0E8884BF6FF7188428B
:1004E00006D1286800EB4000B8FBF0F087B209E0C5
:1004F000286800EBC00101EB0010B8FBF0F087B2F8
:1005000047F48047C7F30B0008B947F0010747F4E9
:10051000004006434FF4967009FB00F04FF47A71E7
:1005200090FBF1F0401C2084A683208840F001005D
:10053000208026884FF6F5300640A8886989084350
:1005400006432680A88929890843208105B0BDE893
:10055000F083000000127A0040420F00A0860100E4
:1005600008B50246002000900092009808440090D0
:100570000098008808BD0182704700BFFEE70000B8
:1005800000B585B00121084600F0E2F80121022003
:10059000FFF7DAFE0121082000F0DAF84FF440708E
:1005A000ADF810001C208DF8130002208DF8120009
:1005B00004A91148FFF73CFE0121480500F0A8F806
:1005C0000121480500F0B4F800214FF4001000F0BC
:1005D000AFF80A4800900020ADF804004BF6FF7019
:1005E000ADF8060069460648FFF744FF01210448BC
:1005F000FFF7FFFE05B000BD000C0140801A0600A9
:10060000005400402DE9F04180460D4616461F4635
:1006100000BF3C494046FFF710FF0128F9D00121F7
:100620004046FFF7F2FE00BF36494046FFF705FFA0
:100630000028F9D034494046FFF7D5FE05F0FE0109
:100640004046FFF798FF15E02E49491C4046FFF74A
:10065000F4FE012800D10EE02B494046FFF7EDFEE5
:10066000012807D101214046FFF7DBFE4FF0FF30A4
:10067000BDE8F081E8E700BF14214046FFF770FFB6
:1006800018214046FFF76CFF00241AE011E01E49D4
:100690004046FFF7D2FE012803D101214046FFF773
:1006A000C0FE18497F314046FFF7C7FE012800D140
:1006B00000E0ECE700BF315D4046FFF75CFF601CE7
:1006C00084B2BC42E2DB14E00F494046FFF7B5FEBE
:1006D000012806D101214046FFF7A3FE6FF001007B
:1006E000C6E70849C91C4046FFF7A7FE012800D10C
:1006F00000E0E9E700BF01214046FFF792FE00203D
:10070000B6E70000010000100004001070477047B9
:1007100029B1064AD2690243044BDA6104E0034A74
:10072000D2698243014BDA61704700000010024039
:1007300029B1064A12690243044B1A6104E0034AD4
:1007400012698243014B1A61704700000010024099
:1007500029B1064A92690243044B9A6104E0034AB4
:1007600092698243014B9A61704700000010024079
:1007700030B500210022002400232D4D6D6805F0C6
:100780000C0121B1042905D0082923D105E0294D08
:10079000056022E0274D05601FE0254D6D6805F4DA
:1007A0007012234D6D6805F48034022505EB9242EA
:1007B0001CB9214D554305600BE01D4D6D6805F4D6
:1007C00000351DB11C4D5543056002E0194D5543E0
:1007D000056002E0174D056000BF00BF144D6D6855
:1007E00005F0F0010909154D6B5C0568DD404560B9
:1007F0000F4D6D6805F4E061090A104D6B5C4568AA
:10080000DD4085600A4D6D6805F46051C90A0B4DE5
:100810006B5C4568DD40C560054D6D6805F4404181
:10082000890B074D6B5CC568B5FBF3F5056130BD01
:100830000010024000127A0000093D000000002074
:1008400010000020704710B500F002F810BD000045
:100850000CB50020019000903348006840F48030CF
:100860003149086000BF3048006800F40030009053
:100870000198401C0190009818B90198B0F5A06F3C
:10088000F1D12948006800F4003010B10120009037
:1008900001E0002000900098012843D1234800681F
:1008A00040F01000214908600846006820F0070069
:1008B00008600846006840F0020008601A48406876
:1008C000194948600846406848600846406840F456
:1008D000806048600846406820F47C104860084604
:1008E000406840F4E81048600846006840F08070B6
:1008F000086000BF0C48006800F000700028F9D0C4
:100900000948406820F003000749486008464068ED
:1009100040F00200486000BF0348406800F00C004F
:100920000828F9D10CBD0000001002400020024050
:100930000448036840685A1C40F1000001490A60FD
:10094000486070471800002010B51348006840F058
:1009500001001149086008464068104908400E49E6
:100960004860084600680E4908400B490860084680
:10097000006820F4802008600846406820F4FE00EB
:1009800048604FF41F008860FFF75DFF4FF0006084
:100990000449086010BD0000001002400000FFF88C
:1009A000FFFFF6FE08ED00E000BFFEE702E008C82A
:1009B000121F08C1002AFAD170477047002001E0D9
:1009C00001C1121F002AFBD1704700000EB5FFF7CE
:1009D000E5FB01211020FFF7BBFE4FF40050ADF8FE
:1009E000080014208DF80B0002208DF80A0002A9DF
:1009F0001148FFF71DFC11A103C9CDE90001FFF764
:100A0000BFFD05236A4678210E48FFF7FBFD12E083
:100A100000224FF400510848FFF7DEFC4FF4FA7053
:100A2000FFF7AAFB012251030348FFF7D5FC4FF45F
:100A30007A70FFF7A1FBEBE700100140008D14AFC7
:100A4000A500000000540040680A000800000020D3
:100A500020000000AC090008880A000820000020DF
:100A600000100000BC09000800000000010203049F
:100A7000010203040607080902040608000000003A
:080A800000000000000000006E
:04000005080000ED02
:00000001FF
